:020000040000FA
:100000000002040000000000C4A10000C4A1000020
:10001000C4A10000C4A10000C4A10000C4A100004C
:10002000C4A10000C4A10000C4A10000C4A100003C
:10003000C4A10000C4A10000C4A10000C4A100002C
:10004000C4A10000C4A10000C4A10000C4A100001C
:10005000C4A10000C6770000EC770000C4A1000036
:10006000C4A10000C4A10000C4A10000C4A10000FC
:10007000C4A10000C4A10000C4A10000C4A10000EC
:10008000C4A10000C4A10000C4A10000C4A10000DC
:10009000C4A10000C4A10000C4A10000C4A10000CC
:1000A000C4A10000C4A10000C4A10000C4A10000BC
:1000B000C4A10000C4A10000C4A10000C4A10000AC
:1000C000C4A10000C4A10000C4A10000C4A100009C
:1000D000C4A10000C4A10000C4A10000C4A100008C
:1000E000C4A10000C4A10000C4A10000C4A100007C
:1000F000C4A10000C4A10000C4A10000C4A100006C
:10010000C4A10000C4A10000C4A10000C4A100005B
:10011000C4A10000C4A10000C4A10000C4A100004B
:10012000C4A10000C4A10000C4A10000C4A100003B
:10013000C4A10000C4A10000C4A10000C4A100002B
:10014000C4A10000C4A10000C4A10000C4A100001B
:10015000C4A10000C4A10000C4A10000C4A100000B
:10016000C4A10000C4A10000C4A10000C4A10000FB
:10017000C4A10000C4A10000C4A10000C4A10000EB
:10018000C4A10000C4A10000C4A10000C4A10000DB
:10019000C4A10000C4A10000C4A10000C4A10000CB
:1001A000C4A10000C4A10000C4A10000C4A10000BB
:1001B000C4A10000C4A10000C4A10000C4A10000AB
:1001C000C4A10000C4A10000C4A10000C4A100009B
:1001D000C4A10000C4A10000C4A10000C4A100008B
:1001E000C4A10000C4A10000C4A10000C4A100007B
:1001F000C4A10000C4A10000C4A10000C4A100006B
:10020000FFFFFF00FFFFFF00C4A10000C4A100002A
:10021000C4A10000C4A10000C4A10000C4A100004A
:10022000C4A10000C4A10000C4A10000C4A100003A
:10023000C4A10000C4A10000C4A10000C4A100002A
:10024000C4A10000C4A10000C4A10000C4A100001A
:10025000C4A10000C6770000EC770000C4A1000034
:10026000C4A10000C4A10000C4A10000C4A10000FA
:10027000C4A10000C4A10000C4A10000C4A10000EA
:10028000C4A10000C4A10000C4A10000C4A10000DA
:10029000C4A10000C4A10000C4A10000C4A10000CA
:1002A000C4A10000C4A10000C4A10000C4A10000BA
:1002B000C4A10000C4A10000C4A10000C4A10000AA
:1002C000C4A10000C4A10000C4A10000C4A100009A
:1002D000C4A10000C4A10000C4A10000C4A100008A
:1002E000C4A10000C4A10000C4A10000C4A100007A
:1002F000C4A10000C4A10000C4A10000C4A100006A
:10030000C4A10000C4A10000C4A10000C4A1000059
:10031000C4A10000C4A10000C4A10000C4A1000049
:10032000C4A10000C4A10000C4A10000C4A1000039
:10033000C4A10000C4A10000C4A10000C4A1000029
:10034000C4A10000C4A10000C4A10000C4A1000019
:10035000C4A10000C4A10000C4A10000C4A1000009
:10036000C4A10000C4A10000C4A10000C4A10000F9
:10037000C4A10000C4A10000C4A10000C4A10000E9
:10038000C4A10000C4A10000C4A10000C4A10000D9
:10039000C4A10000C4A10000C4A10000C4A10000C9
:1003A000C4A10000C4A10000C4A10000C4A10000B9
:1003B000C4A10000C4A10000C4A10000C4A10000A9
:1003C000C4A10000C4A10000C4A10000C4A1000099
:1003D000C4A10000C4A10000C4A10000C4A1000089
:1003E000C4A10000C4A10000C4A10000C4A1000079
:1003F000C4A10000C4A10000C4A10000C4A1000069
:10040000AF2122000E7F22000E01880000000000B4
:100410000C000700E0342900010020001100070053
:10042000000020000000E000020032000000020096
:1004300000000000609F0200000000000040DA00A1
:100440000000FE004440A900803320000000E000CE
:100450000300320000002000A00188004440A800F2
:100460000000060091018800800078000000EB0089
:1004700015003700E280400032A0B4009101BA00BC
:10048000E280400032A0B4009102BA00E280400055
:1004900032A0B4000002EB00472BDE00F507B200EB
:1004A000602CE10004003A000059EB008301E900F0
:1004B000FDFF3E00040037006128E100010032002A
:1004C0000082EB00040007001101BA000200E00006
:1004D000E8FF3A00000006003159BA008301E90044
:1004E0000C0032002159BA008301E90008003200F3
:1004F0000400E00003003A00E280400032A0B400B3
:10050000F5FF370011D9BA008301E900FAFF3A007C
:100510008100E800E180400032A0B4000000060045
:1005200000000000000000000000000000000000CB
:1005300000000000000000000000000000000000BB
:1005400000000000000000000000000000000000AB
:10055000000000000000000000000000000000009B
:1007B000889FBE008A9FBE00010578000100E0000E
:1007C0000400350008003C000000E000200032007A
:1007D0000500370060001000E080180002003B00B8
:1007E00001F02C001A0037000004BE006011B800B0
:1007F0006B0920000982CF00020039000882CF0077
:100800000441B000694252000E00320008003B0073
:1008100082817100610164008904D1000884D300E1
:100820008B05E8000442E800F9FF3A0005003700B4
:100830000804440089844C008B05E9000442E90067
:10084000FBFF3A000B0107000AF0A70001F0A0002F
:100850004F05BE004F04BE0000000600F4FF2F004D
:100860002A0137001400200028013700889FBE00AD
:100870008A9FBE008C1F78003F01070046013300AD
:1008800003866C006450E1002E0032006420E10019
:10089000330032006150E1002F0032006120E1009E
:1008A0003100320085855500EB07B00009002000BB
:1008B00008042000050037000804440089844C0027
:1008C0000A0031000603430087834B0000015300F8
:1008D00081815B00F8FF33000203BE000800A00026
:1008E0000804440089844C00F6FF3900C639DD0055
:1008F0008301730001003200130020008904D1003D
:100900000884D3000998A300050032000800A7005E
:100910000300A0008904D1000884D3008B05E800FF
:100920008904D1000884D3000001EB000281D200C9
:10093000D000070001F0A1000CF0A70001F0A0001A
:100940001E0137006420E100200132000801BE00D2
:100950000200BE00F7FF37006120E1001B013200FA
:100960006000B800F3FF37000000200001F8270006
:10097000F0FF370003F0A200889FBE008A9FBE00F0
:100980008C1F7800FC000700030133006450E10075
:100990004F0032006420E1005200320003826C00FC
:1009A00007003B000905D0000306D000820F540069
:1009B0000C065D0002003900020032008901780057
:1009C000030678008582550004003D000003FD0009
:1009D0008103FD008502EA008B854200840F7200CE
:1009E00002003B0060001000E08018006011B800B9
:1009F0000005EB007A28E1000A00390006007800C3
:100A0000C75DDD00F707B200878075002D00370055
:100A1000828171000A017800610560008180D10047
:100A20000080D3008502E900F9FF3B000604400086
:100A30008784480002003B0060041400E0841C002E
:100A40000988A300070032008A8171008281710049
:100A5000610164008904D1000884D3008B05E8009B
:100A6000170037000978A30013003A000B00E000DC
:100A7000130034008B05E9000804440089844C000D
:100A80000A4474000978A3000D003A000B00E0004E
:100A9000070034008B05E9000804440089844C00F9
:100AA00001003A000B0020000978A300F7FF320094
:100AB0000001EB0002003700828171000A0178001A
:100AC0006C0007000CF0A70001F0A000BB0037008D
:100AD0006420E10002003A00838F6C00BB00330009
:100AE0000801BE000200BE00B4003700889FBE00AF
:100AF0008A9FBE008C1F78009F000700A60033006D
:100B000003866C006450E100240032006420E100A0
:100B1000270032006150E100220032006120E10034
:100B2000210032008B854200EB07B1000134B80090
:100B3000003AB8000804420089844A00013AB8002B
:100B40000030B8008880400009014A0004003300EA
:100B50000000400081804800020149008B05E90047
:100B6000C909DD008301700001003200130020007C
:100B7000C814DE004814DD004709DE001200B20090
:100B8000C808DE00088470003A00070001F0A100E8
:100B90000CF0A70001F0A000880037006120E10000
:100BA0008A0032000801BE000200BE00F7FF3700D5
:100BB0006150E100FCFF3A00840037000001BE00F4
:100BC000850007000470A70003F0A10003F8A3004C
:100BD00013003A006509B100100032000900350029
:100BE0006928E1000200350001002800000005002E
:100BF00000004000818048008502E900FCFF3A00C7
:100C000000000600F88F4200050035008100D10089
:100C10000080D3008502E800FCFF3A0000000600D7
:100C20008000EB00000005006022B80006022000F2
:100C30000000D0008180D2000482D2008582D200E0
:100C40000000A0000202520083825A00030031001B
:100C50000202420083824A000000A1000603E9006C
:100C6000F3FF3A0000000600EFFF07000400BE009B
:100C70000000060081002000618055000B003D004F
:100C80000B00200061FE2F000100E1001D00340078
:100C900082817100610164008904D1000884D3005D
:100CA0000000E800FAFF3A007100200061006400D3
:100CB000030070000200600009003200610444007B
:100CC000E0844C000988A500050032008B05E8008F
:100CD0006808E10002003A008904D1000884D300CA
:100CE000F20F20000258E10005003D00C75DDD0065
:100CF000F907B2008980750008007800000006003E
:100D00000BF827008B00780000000500889FBE00CC
:100D10008A9FBE00841F7800170007004F007800EC
:100D200011003300F0FF2F00838F6C0006003B00A2
:100D3000040565000A00A7000800370009F0A600B6
:100D40001000200008003700820F5400838F5C00E1
:100D5000030039001000200001003E0000002000C8
:100D600009F0A7000000EA004F05BE004F04BE00D6
:100D70000000E000000006000004BE0016000700AE
:100D80000003BE000405BE000200BE001200070002
:100D9000844F7500000006000200BE006450E100B0
:100DA000050036006420E100020036000968A30057
:100DB00001003A000800BE000160A0004F06780064
:100DC0004F05BE004F04BE0000000600F0FF2F00DC
:100DD000F1FF2700F9FF3700C70ADE00F107B20074
:100DE000F50FB20008003200E1CF420002003200ED
:100DF0000170A00024000500810F70000100320086
:100E00000408050044000500810F700002003A004C
:100E1000140005008502E9000000400081C0480080
:100E2000FCFF3B000170A00024000500005E0000F4
:100E3000BCE20000613F0000DD830000C29C0000B6
:100E40007E200000A3FD00001F4100009DC30000A4
:100E5000217F0000FCA20000401E00005F01000096
:100E6000E3BD00003E60000082DC0000237D000046
:100E70009FC10000421C0000FEA00000E1BF000076
:100E80005D03000080DE00003C620000BEE0000068
:100E9000025C0000DF810000633D00007C22000056
:100EA000C09E00001D430000A1FF00004618000086
:100EB000FAA40000277900009BC5000084DA000036
:100EC00038660000E5BB000059070000DB85000024
:100ED00067390000BAE40000065800001947000016
:100EE000A5FB000078260000C49A0000653B0000C6
:100EF000D9870000045A0000B8E60000A7F90000F6
:100F00001B450000C69800007A240000F8A60000E7
:100F1000441A000099C70000257B00003A640000D5
:100F200086D800005B050000E7B900008CD2000005
:100F3000306E0000EDB30000510F00004E100000B5
:100F4000F2AC00002F71000093CD0000114F0000A3
:100F5000ADF30000702E0000CC920000D38D000095
:100F60006F310000B2EC00000E500000AFF1000045
:100F7000134D0000CE900000722C00006D33000075
:100F8000D18F00000C520000B0EE0000326C000067
:100F90008ED00000530D0000EFB10000F0AE000055
:100FA0004C12000091CF00002D730000CA94000085
:100FB00076280000ABF50000174900000856000035
:100FC000B4EA000069370000D58B00005709000023
:100FD000EBB50000366800008AD4000095CB000015
:100FE00029770000F4AA000048160000E9B70000C5
:100FF000550B000088D60000346A00002B750000F5
:1010000097C900004A140000F6A80000742A0000E6
:10101000C8960000154B0000A9F70000B6E80000D4
:101020000A540000D78900006B3500003E00000024
:1010300008200000080000001B5B000044000000C6
:101040001B5B000000440000001B00005B4300002D
:10105000001B00005B3200004B0D0000004300004D
:10106000000000001B5B000032440000005700003D
:10107000617200006E6900006E6700003A20000097
:101080006E6F0000207600006F6C0000746100003D
:1010900067650000206F00006E20000056700000A1
:1010A000756C00006C750000702000007069000015
:1010B0006E000000203D000020000000565200009D
:1010C00045470000207400006F6F0000206C000096
:1010D0006F7700002C20000069730000207400006E
:1010E0006865000072650000206100002073000048
:1010F000686F0000727400003F0000002E200000A6
:101100003C0000002E200000000D00000A28000016
:10111000002900003E00000042750000732000001E
:1011200050690000726100007465000020760000C4
:101130003300000046690000726D00007761000016
:101140007265000020760000362E0000305200004C
:1011500043200000287200003537000032290000CB
:10116000200000002028000032340000464A000021
:1011700036340000474100003030000032200000CB
:101180000041000033000000423400000042000033
:101190003500000042380000005500004E4B0000B2
:1011A0000029000000490000090000004F0900006C
:1011B00000480000090000004C0900000045000044
:1011C0006E740000657200002072000061770000FC
:1011D00020760000616C000075650000206600004C
:1011E0006F72000020420000524700000000000023
:1011F0004C45000054000000494600000054000027
:10120000484500004E000000454C000053450000DA
:10121000004700004F5400004F000000474F0000FF
:101220005355000042000000524500005455000094
:10123000524E000000520000454D000000500000DA
:10124000524900004E540000004900004E5000007A
:1012500055540000004600004F52000000540000AA
:101260004F0000004E45000058540000005200009E
:10127000454100004400000044410000544100008A
:10128000005300005441000052540000520000007E
:101290005354000041520000540000005354000019
:1012A0004F50000052000000535400004F50000007
:1012B00000530000454E000044000000524500006D
:1012C000434500004956000045000000434C000023
:1012D0004B0000004441000054000000424900005F
:1012E0005452000045410000440000004144000009
:1012F000430000004155000058500000494E0000D6
:10130000005000005355000000500000554C0000F4
:101310004C55000050000000444500004C410000C6
:1013200059000000415500005800000046520000DE
:1013300045510000004400005554000059000000D1
:101340004D410000435200004F000000454E000098
:101350004400000000520000554E0000004C000008
:101360004953000054000000455800004954000053
:10137000004400004542000055470000004E0000B8
:1013800045570000000000003062000000300000FF
:10139000303000002C000000303000000030000031
:1013A0003132000033340000353600003738000099
:1013B000394100004243000044450000463000002F
:1013C00078000000436F0000756C0000646E000040
:1013D00027740000206B000065650000702000008D
:1013E00075700000000000005350000049310000FB
:1013F000000000000029000000200000570000004D
:10140000205200000049000032430000310000007B
:101410003A200000000000002E00000031570000BC
:101420003031000000000000314100004C5300004A
:101430000042000050760000330000000808000061
:10144000080800000800000000000000204800001C
:101450007A0000000000000000410000525400002B
:101460003100000042420000494F000031000000FE
:101470005241000057310000000000004F430000BF
:1014800044310000000000000000000000000000E7
:101490002900000000000000000000002800FA0001
:1014A0000000EB00600F98000000EB007066880001
:1014B0000000EB00606688006066800020079800EE
:1014C0000000EB00100798000000EB00000F780010
:1014D0000000EB00A04088000000EB0050079800DF
:1014E0000000EB00806688000000EB0040079800D9
:1014F0000000EB00000F9800130037000000EB0025
:10150000600798000A0037000E089000EE00900077
:101510004500DD000101400021CD20000040EB002E
:1015200000F178006E0090000000E800600798006D
:101530006E009000FF0F5000F3FF34000E08900083
:101540000000E800000F98000E089000E40F500023
:10155000EAFF34000000EB00906B8800A14080009F
:10156000E00220000088B900610220008080400075
:10157000E093200000804000807302000000000023
:10158000D140800000202000008060000000E000CA
:101590000400320071002000C0592000169D020096
:1015A000000000006081280080730200000000003D
:1015B00008043700906B80000000E0005E003200FD
:1015C000906B80000000E900906B88000000EB0049
:1015D000600798001B00370062668000906B8000F7
:1015E000EE0090004500DD008100400020CD20008D
:1015F000E1407800C0BC200001717800906B800051
:10160000EE0090004500DD008100400020CD20006C
:10161000614078006E770200000000006066800084
:101620000000E800606688006E0090000000E8009E
:101630006007980061668000F00F20000080600065
:1016400060668800906B8000EE0090004500DD0031
:101650008100400020CD2000614078000004E000BF
:10166000DDFF3A000000EB00906B8800320037008D
:10167000E0B2200010407800644060000004E00008
:101680002D003200A1408000E00220000088B90057
:10169000FA004000E0932000008040001000780035
:1016A000000001000000E00023003200A1408000A3
:1016B000E00220000088B900610220008080400024
:1016C000E0932000008040008073020000000000D2
:1016D00060812800807302000000000071668000B5
:1016E00060668000808F50001300320070668000BA
:1016F000600798000C003700EE009000C0BC20008E
:10170000614078006E77020000000000EE0090005B
:10171000F00F200000806000600798006E009000CD
:101720000000E80060079800EE009000606680000E
:10173000808F5000F0FF3A00507702000000000058
:101740000004E000CAFF320022C2BF006240600015
:101750000004E0000500320010118000D1FF2F00CE
:1017600001006000101188009A0337005C770200C6
:1017700000000000604F98006E4890000080FB0061
:101780006101B9000217980013179800F0072000B4
:10179000010020000E1190009E119000800F51005A
:1017A000818F59001E033E000E1090009E10900085
:1017B000006001000F033700C50237003501370014
:1017C00017033700D3003700DC0237004A01370027
:1017D000130337007700370011033700F202370098
:1017E0000F0337000E033700EF023700EC0137001C
:1017F0000B03370051013700090337000803370096
:1018000007033700060337000503370004033700DA
:1018100003033700020337000103370000033700DA
:10182000F9003700FE023700FD023700FC023700E6
:10183000FB023700FA023700F9023700F8023700DE
:10184000F7023700F6023700F5023700F4023700DE
:10185000F3023700F2023700F1023700F0023700DE
:10186000EF023700EE023700ED023700EC023700DE
:10187000EB023700EA023700E9023700E8023700DE
:10188000E7023700E6023700E5023700E4023700DE
:10189000E3023700E2023700E1023700E0023700DE
:1018A000DF023700DE023700DD023700DC023700DE
:1018B000DB023700DA023700D9023700D8023700DE
:1018C000D7023700D6023700D5023700D4023700DE
:1018D000D3023700D2023700D1023700D0023700DE
:1018E000CF023700CE023700CD023700CC023700DE
:1018F000CB023700CA023700C9023700C8023700DE
:10190000C7023700C6023700C5023700C4023700DD
:10191000C3023700C2023700C1023700C0023700DD
:10192000BF023700BE023700BD023700BC023700DD
:10193000BB023700BA023700B9023700B8023700DD
:10194000B7023700B6023700B5023700B4023700DD
:10195000B3023700B2023700B1023700B0023700DD
:10196000AF023700AE023700AD023700AC023700DD
:10197000AB023700AA023700A9023700A8023700DD
:10198000A7023700A6023700A5023700A4023700DD
:10199000A3023700A2023700A1023700A0023700DD
:1019A0009F0237009E0237009D0237009C023700DD
:1019B00058003700716680002E009000810F5000A3
:1019C00050003200616680002E009000810F5000B0
:1019D0000F003A00606680008000E900F00F2000F0
:1019E000008060006066880062668000C1BC2000E4
:1019F0000040EB0000F1780061668000210798004C
:101A0000808128008073020000000000F10237008E
:101A10000000EB00000F98002E0090008000E9000D
:101A2000F00F20000080600020079800C08128008F
:101A300080730200000000002E01900062079800F1
:101A40001D0037006E0190006E0090008000E800DD
:101A5000C0BC2000E1407800C0BC200001717800CB
:101A6000EE009000C0BC2000614078000004E0005F
:101A7000060032006E009000C1BC200060C07800FB
:101A80006E770200000000000300370000C2B300C0
:101A90006E770200000000000E0890000000E800D1
:101AA000000F98006E0090008000E800F00F20000A
:101AB0000080600060079800EE0090006066800083
:101AC000808F5000DFFF3A00606680008000E900F0
:101AD000F00F20000080600060668800008228000F
:101AE00080730200000000000E08900018760200CB
:101AF0000000000030822800807302000000000017
:101B0000B402370070C0B3006E770200000000001E
:101B1000B0023700616680002E009000810F5000F7
:101B2000350032000000EB00000F9800AE0190007D
:101B3000630798001D0037006E0190006E00900052
:101B40008000E800C0BC2000E1407800C0BC20005C
:101B500001717800EE009000C0BC20006140780068
:101B60000004E000060032006E009000C1BC2000BE
:101B700060C078006E7702000000000003003700AC
:101B800000C2B3006E770200000000000E08900053
:101B90000000E800000F98006E0090008000E80050
:101BA000F00F20000080600060079800EE009000B9
:101BB00060668000808F5000DFFF3A006066800022
:101BC0008000E900F00F200000806000606688005F
:101BD0000082280080730200000000000E089000C0
:101BE0001876020000000000308228008073020096
:101BF000000000007702370070C0B3006E7702006B
:101C000000000000730237005C7702000000000053
:101C1000604F9800EE489000B0C5B30080CF5000F0
:101C20006C023A005C77020000000000604F9800F0
:101C30006E4890000080FB00700F98002004200088
:101C4000FE089000808F5000D50032002004200054
:101C50007E099000800F510005003C001004200018
:101C6000FE099000808F5100340032005902370085
:101C700030042000FE089000808F50001E003200CB
:101C8000400420007E099000800F510001003200C6
:101C9000500237004E009000E40F50000500340061
:101CA0006C860200000000000000EB004007980076
:101CB00048023700716680002E009000810F5000AE
:101CC000090032002E0090008000E900F00F200093
:101CD0000080600020079800C08128008073020007
:101CE000000000003B02370070C0B3006E770200B6
:101CF0000000000037023700616680002E0090006F
:101D0000810F5000090032002E0090008000E80092
:101D1000F00F20000080600020079800508228000B
:101D200080730200000000002A02370070C0B30078
:101D30006E77020000000000260237000000EB0072
:101D4000000F7800706680000000E90080007800D5
:101D5000F00F2000008060006007980084003700CA
:101D60006E009000C1BC200060C078000004E0005C
:101D70007A003A006E0090008000E900F00F200029
:101D800080806000C0BC2000614078000004E0005A
:101D9000720032001E0FE8001E0090009E0F10001F
:101DA0006E0036001E0090000000E800100798004A
:101DB0007166800060668000808F500012003200E3
:101DC0000900370062668000C1BC20000040EB00C3
:101DD00000F17800606680008000E900F00F2000CC
:101DE0000080600060668800616680007066800028
:101DF000808F5000F3FF3A0062668000C1BC200073
:101E00000040EB0000F178006E0090008000E900D7
:101E1000F00F200000806000000F980010003700D5
:101E20000E089000C1BC200060C078000004E000F3
:101E300006003A000E0890008000E800F00F200035
:101E40000080600050079800090037000E089000DD
:101E50008000E900F00F200000806000000F980073
:101E60008E08900060668000808F5000ECFF3A0082
:101E7000908228008073020000000000A1408000D2
:101E8000E00220000088B90061022000808040004C
:101E9000E0932000008040008073020000000000FA
:101EA000D140800000202000008060000000E000A1
:101EB0000400320071002000C0592000169D02006D
:101EC0000000000060812800807302000000000014
:101ED000DE019000030F9800150037008E08900077
:101EE000C0BC2000614078006E7702000000000056
:101EF000626680008E089000C0BC2000E14078003F
:101F0000C0BC200001717800606680008000E8009D
:101F1000F00F200000806000606688000E089000CE
:101F20008000E800F00F200000806000000F9800A3
:101F30008E0890006E009000808F5000E7FF3A00FE
:101F400062668000C1BC20000040EB0000F1780018
:101F50006066800020079800090037006E0090003E
:101F60008000E900F00F200000806000600798000A
:101F7000EE00900060668000808F500078FF3A008D
:101F8000EE00900060668000808F500091013A0062
:101F900070C0B3006E770200000000008D013700B2
:101FA0000000EB00000F7800706680000000E90080
:101FB00080007800F00F200000806000600798002B
:101FC000850037006E009000C1BC200060C0780022
:101FD0000004E0007B003A006E0090008000E90001
:101FE000F00F200080806000C0BC200061407800BD
:101FF0000004E000730032001E0FE8001E00900095
:102000000000E9009E0F50006E003A001E00900094
:102010000000E9001007980071668000606680008B
:10202000808F500012003200090037006266800085
:10203000C1BC20000040EB0000F178006066800029
:102040008000E900F00F20000080600060668800DA
:102050006166800070668000808F5000F3FF3A0058
:1020600062668000C1BC20000040EB0000F17800F7
:102070006E0090008000E900F00F200000806000FA
:10208000000F9800100037000E089000C1BC20001F
:1020900060C078000004E00006003A000E089000DE
:1020A0008000E800F00F20000080600050079800DA
:1020B000090037000E0890008000E900F00F2000B2
:1020C00000806000000F98008E089000606680001D
:1020D000808F5000ECFF3A0090822800807302004D
:1020E00000000000A1408000E00220000088B9004C
:1020F0006102200080804000E093200000804000CA
:102100008073020000000000D14080000020200009
:10211000008060000000E000040032007100200038
:10212000C0592000169D02000000000060812800B8
:102130008073020000000000DE009000010F980094
:10214000150037008E089000C0BC20006140780068
:102150006E77020000000000626680008E0890002A
:10216000C0BC2000E1407800C0BC200001717800B4
:10217000606680008000E800F00F200000806000B2
:10218000606688000E0890008000E800F00F2000D4
:1021900000806000000F98008E0890006E00900094
:1021A000808F5000E7FF3A0062668000C1BC2000CB
:1021B0000040EB0000F17800626680002207980082
:1021C000090037006E0090008000E900F00F200049
:1021D0000080600060079800EE009000606680005C
:1021E000808F500077FF3A00EE009000606680001C
:1021F000808F5000F7003A001E009000E10F500061
:102200002F003A0090822800807302000000000036
:10221000A1408000E00220000088B9006102200097
:1022200080804000E0932000008040008073020026
:1022300000000000D14080000020200000806000ED
:102240000000E0000400320071002000C0592000AE
:10225000169D0200000000006081280080730200CB
:10226000000000000900370062668000C1BC200049
:102270000040EB0000F17800606680008000E9001B
:10228000F00F2000008060006066880061668000BA
:1022900070668000808F5000F3FF3A006266800015
:1022A000C1BC20000040EB0000F1780063668000B4
:1022B000230798000000EB0010079800C5003700C6
:1022C00070C0B3006E77020000000000C10037004C
:1022D000716680002E009000810F500013003200C4
:1022E000716680002E009000010050008000780090
:1022F000F00F200000806000000F9800008228008E
:1023000080730200000000000E08900018760200A2
:1023100000000000308228008073020000000000EE
:102320007066800020079800AA00370070C0B300D4
:102330006E77020000000000A60037006166800092
:102340002E009000810F5000130032006166800063
:102350002E0090000080500080007800F00F2000D8
:1023600000806000000F9800008228008073020047
:10237000000000000E089000187602000000000027
:10238000F082280080730200000000006166800077
:10239000210798008F00370070C0B3006E770200ED
:1023A000000000008B00370010002000600F980034
:1023B0000000EB001007980062668000C1BC20009E
:1023C0000040EB0000F17800606680008000E800CB
:1023D000F00F200000806000606688006266800068
:1023E0002207980010832800AC7302000000000050
:1023F000780037004E0090000000E8004007980089
:102400004E009000F40F500072003A00FA7802007B
:10241000000000000000EB00400798006D0037004E
:10242000606680008000E800F00F2000808060007F
:1024300070668000808F5000630032006E4890000C
:10244000FF4F500060003600EE489000E0C7B30038
:1024500080CF50005C003E00616680002E0090003E
:10246000808F500013003A006E4890006E77020093
:102470000000000062668000EE489000C0BC2000B2
:1024800001717800606680008000E800F00F200095
:10249000008060006066880062668000C1BC200029
:1024A0000040EB0000F1780063668000230798008D
:1024B00048003700616680002E00900000805000C8
:1024C00080007800F00F200000806000000F98006E
:1024D0000082280080730200000000000E089000B7
:1024E0001876020000000000F082280080730200CD
:1024F0000000000060668000600798001900370047
:102500006E0090000001E800EE009000C0BC2000CA
:10251000E1407800C0BC200001717800EE0090001E
:10252000C0BC2000614078000004E00008003200D8
:102530006E009000C1BC200060C078006E77020081
:1025400000000000208328008073020000000000CB
:102550006E0090008000E900F00F20000080600015
:10256000600798006E0190002E0090008000E90046
:10257000F00F200000806000800F5100E0FF3A0063
:102580006E4890006E770200000000002E0190005F
:10259000EE489000C0BC2000017178002E00900031
:1025A0008000E800F00F2000008060002007980005
:1025B000606680008000E800F00F2000008060006E
:1025C000606688000300370070C0B3006E770200B9
:1025D000000000006E0890000000E000F5FB3200F3
:1025E00060668000400F980070668000300F980091
:1025F0000000EB00600F98000000EB00500F980007
:102600000000EB0080668800D140800000202000A0
:10261000008060000000E000FB0432004A35020048
:102620000000000051002000305A2000A09D020050
:102630000000000010002000500F9800F204370046
:1026400071668000C0BC200061407800604F980037
:102650006E4890000080FB006101B90022179800CD
:1026600033179800E0072000010020002E11900091
:10267000BE119000800F5100818F5900B6043E00BA
:102680002E109000BE10900000600100B4043700CE
:10269000B1043700B0043700AF043700AE04370090
:1026A000AD043700AC043700AB043700AA04370090
:1026B000A9043700AA043700A7043700A60437008E
:1026C000A7043700A4043700A3043700A20437008E
:1026D000A1043700A00437009F0437009E04370090
:1026E0009D0437009C0437009B0437009A04370090
:1026F0009904370098043700970437009604370090
:10270000950437009404370093043700940437008D
:1027100071043700BA023700270137003001370053
:10272000D9013700C70137008B0437009402370006
:10273000890437008804370089043700880437008B
:102740001D04370036043700010437002E0337001C
:102750002D0337002C0337002B0337002A033700E3
:1027600029033700280337002703370026033700E3
:10277000250337007804370077043700E20137007B
:10278000C5003700740437003F00370042013700AE
:10279000340137007004370064003700A6013700A9
:1027A0006D0437006C0437006B0437006A0437008F
:1027B0006904370068043700670437006500370094
:1027C0006504370064043700630437008B0037006A
:1027D0006104370060043700C00137005E04370031
:1027E0005D0437005C043700410137005A043700AC
:1027F0005904370058043700DF023700E10337007F
:10280000EF02370015043700F80337005204370091
:1028100007013700270037003A00370078013700FA
:102820004D043700290037002B0037004A043700D9
:1028300018003700480437004704370051003700BC
:102840001A003700440437001C00370059003700D5
:1028500041043700660337009C0137003E0437000F
:102860003D04370017003700530137003A043700A2
:102870003904370038043700C8023700A100370098
:10288000D8023700BF003700B69D020000000000EC
:10289000330437007F070700A04080000000E000FD
:1028A0002F043200E40707002D0437003406070028
:1028B0002B0437001B09070029043700F50807001F
:1028C0002704370069080700250437003E8002000E
:1028D0000000000022043700A04080000000E0005B
:1028E00005003A00D1012000305D2000A09D0200CB
:1028F000000000001A043700A87E0200000000005B
:1029000017043700E1B22000114078000000A10058
:102910000010A1008048780061012000805A20004A
:10292000A09D0200000000000D043700E1B220006D
:10293000114078000000A0000010A100804878003D
:1029400051012000E05B2000A09D0200000000007B
:1029500003043700E1B22000114078000030A000ED
:1029600080487800C1012000B07E2000169D020042
:102970000000000010832800AC730200000000007B
:10298000F7033700E1B22000114078000030A100C9
:1029900080487800B1012000007D2000169D0200D3
:1029A0000000000010832800AC730200000000004B
:1029B000EB033700A04080000000E00005003A0073
:1029C000D1012000305D2000A09D02000000000029
:1029D000E3033700CB62A900C962A90051012000BE
:1029E000005F2000169D02000000000010832800F8
:1029F000AC73020000000000D9033700A040800043
:102A00000000E00005003A00D1012000305D200008
:102A1000A09D020000000000D1033700E0B22000BA
:102A200010407800704060000004E00004003A00AC
:102A30002102200050E82000A09D020000000000BC
:102A4000C962A800CB62A9004101200050602000AB
:102A5000169D02000000000010832800AC730200E5
:102A60000000000021E3A800B0C0B3001C990200E0
:102A70000000000080007800F0042000808F5000EB
:102A800003003E0070832800AC73020000000000C9
:102A900021E3A900B2033700706680008000E800DF
:102AA000F00F20000080600070668800A505070018
:102AB000DF030700600798006E0090007A7602003E
:102AC00000000000A08528008073020000000000C4
:102AD0006E0090001876020000000000A08528001B
:102AE00080730200000000006E009000E07302009E
:102AF0000000000010832800AC73020000000000FA
:102B000097033700706680008000E800F00F200017
:102B100000806000706688008A050700C403070013
:102B2000600798006E0090000080FB00DC9A0200B5
:102B300000000000600798006E0090007A760200A6
:102B400000000000A0852800807302000000000043
:102B50006E0090001876020000000000A08528009A
:102B600080730200000000006E009000E07302001D
:102B70000000000010832800AC7302000000000079
:102B800077033700A04080000000E00005003A0015
:102B900011C0B30010C0B300FA950200000000009D
:102BA0006F033700A101200090612000A09D02006A
:102BB000000000006A03370051002000306320004D
:102BC000A09D02000000000023C2BF006140600021
:102BD0000004E000FCFF32000000FE00600337004C
:102BE000469E0200000000000000E0005C0332008E
:102BF000A100200080632000A09D020000000000D2
:102C0000400620007A9A020000000000D2980200DC
:102C10000000000023C2BF00614060000004E0002B
:102C2000FCFF320081BF2A00014001004C03370045
:102C3000040507000000E800000F980002003700BC
:102C40007C810200000000000E0890000000E900F6
:102C5000000F98000E0890000000E000F8FF3A0016
:102C60003F033700F70407000000E800000F98005A
:102C7000020037005A810200000000000E08900098
:102C80000000E900000F98000E0890000000E0002E
:102C9000F8FF3A0032033700EA0407000000E800BA
:102CA000000F98000B003700610120002064200015
:102CB000169D0200000000009E810200000000003E
:102CC0006A7302000000000010832800AC73020049
:102CD000000000000E0890000000E900000F9800BE
:102CE0000E0890000000E000EFFF3A001C033700E0
:102CF000A04080000000E00005003A00D101200063
:102D0000305D2000A09D0200000000001403370089
:102D1000C002A900C202A80021E3A80020002000F0
:102D20007A9A020000000000A0C0B3001C990200C3
:102D30000000000080007800001B2000808F500001
:102D40000F00360090C0B3001C9902000000000084
:102D500080007800702B2000808F50000800360023
:102D60001101200080652000169D02000000000077
:102D700010832800AC730200000000000C00370034
:102D8000C002A900C202A900E0852800AC730200BD
:102D9000000000002101200090662000169D020026
:102DA0000000000010832800AC7302000000000047
:102DB00021E3A900EA023700A04080000000E00003
:102DC00005003A00D1012000305D2000A09D0200E6
:102DD00000000000E2023700C002A900C202A90000
:102DE0002101200090662000169D020000000000D6
:102DF00010832800AC73020000000000D8023700E6
:102E0000F1002000A0392000169D02000000000003
:102E1000369902000000000011002000903A2000C6
:102E2000169D02000000000010832800AC73020011
:102E300000000000CA0237004899020000000000AC
:102E4000C70237007F040700000F980061002000D0
:102E500070682000169D0200000000000E0890001F
:102E6000BA7502000000000021002000D068200098
:102E7000A09D0200000000000E089000A69A02002B
:102E800000000000B60237006E040700000F980033
:102E90006100200070682000169D02000000000004
:102EA0000E089000BA75020000000000210020000A
:102EB00090EC2000A09D0200000000000E08900091
:102EC0007A9A020000000000A5023700D04080007E
:102ED0000090A000D0408800A1023700A0408000F0
:102EE0000000E00005003A00D1012000305D200024
:102EF000A09D02000000000099023700D28102006C
:102F00000000000096023700100020008066880054
:102F100010002000600798000F00370071668000E5
:102F20006E00900080804000F00F200080806000E4
:102F3000C0BC2000E1407800E0C3B30080CF500067
:102F400002003A000000EB00806688006E009000EE
:102F50000000E80060079800716680006E00900035
:102F600080804000F00F200080806000C0BC200006
:102F7000614078000004E000E8FF3A00EE009000B5
:102F800020022000808F500002003400100020003A
:102F900080668800806680000000E00070023A00D1
:102FA000706680008000E800F00F20000080600064
:102FB000706688009E0207006007980071668000B6
:102FC000F00F200080806000C0BC2000E14078004D
:102FD000D0C3B30080CF50003C003A006E00900098
:102FE0000000E000360034006E009000E50F500055
:102FF00033003C00706680008000E800F00F200085
:1030000000806000706688006E0090000000E9009B
:10301000600798000000EB00000F98000A003700DE
:103020006E0090008E0890004500DD000101400018
:1030300021CD20000040EB0000F178000E08900048
:103040000000E800000F98000E089000FF0F5000ED
:10305000F3FF34000000EB00000F98001100370070
:103060006E0190008E09900071668000C0BC200047
:10307000614278004510DD008300400020CD200033
:10308000847078000E0890000000E800000F98009F
:10309000706680008000E800F00F20000080600073
:1030A0007066880071668000C0BC2000E140780036
:1030B000E0C3B30080CF5000E9FF3A002802370098
:1030C0001000200080668800250237006E00900006
:1030D0000000E0001B003A000000EB00000F980029
:1030E000140037000E0890000040E8001876020037
:1030F00000000000E087280080730200000000004C
:103100000E0890004500DD008000780020CD2000F2
:1031100000804000807302000000000060812800F1
:10312000AC730200000000000E0890000000E800F0
:10313000000F98000E089000E40F5000E9FF3400E3
:10314000070237006E0090000000E0000900340024
:103150006E009000E50F500006003C001083280030
:10316000AC73020000000000EE009000916B88003C
:10317000FB0137001000200080668800F80137004E
:10318000706680008000E800F00F20000080600082
:103190007066880026020700200F9800E9030700E8
:1031A00071668000F00F200080806000C0BC2000AD
:1031B000E140780090C2B30080CF50000D003A008B
:1031C000A1408000E00220000088B900FC0040001F
:1031D000E093200000804000900078002E089000CE
:1031E0000100010010832800AC7302000000000001
:1031F000DB0137001000200080668800D80137000E
:1032000010002000806688001000200060079800F1
:103210000F003700716680006E00900080804000D3
:10322000F00F200080806000C0BC2000E1407800EA
:1032300020C2B30080CF500002003A000000EB0033
:10324000806688006E0090000000E800600798002B
:10325000716680006E00900080804000F00F2000BA
:1032600080806000C0BC2000614078000004E00065
:10327000E8FF3A00806680000000E000B8013A00F4
:1032800071002000F0682000169D02000000000080
:1032900020C2B3006E77020000000000200037005B
:1032A00071668000F00F200000806000706688006A
:1032B00071668000C0BC2000614078006E7702001B
:1032C0000000000071668000C0BC200061407800F2
:1032D0000000FB00200F9800E0B2200010407800B2
:1032E000684060000004E000040032002E089000F6
:1032F000DC9A020000000000200F9800A14080002E
:10330000E00220000088B900E8004000E0932000BF
:1033100000804000900078002E089000010001001D
:10332000706680000000E8007066880071668000AA
:10333000F00F200080806000C0BC2000E1407800D9
:1033400020C2B30080CF5000D5FF3A0070668000E5
:10335000F10F2000010060007066880020C2B300F9
:103360006E7702000000000010832800AC7302009A
:10337000000000007A013700A1408000E002200038
:103380000088B90080007800E093200000804000B1
:10339000100078000000010071013700A14080009A
:1033A000E00220000088B9008080E800E09320005F
:1033B0000080400010007800000001006801370024
:1033C000A1408000E00220000088B900E400400035
:1033D000E093200000804000100078000000010011
:1033E0005F013700A1408000E00220000088B900A2
:1033F000E6004000E09320000080400010007800CC
:10340000000001005601370071002000F068200024
:10341000169D02000000000085010700200F9800A3
:10342000706680000000E9007066880071668000A8
:10343000F00F200000806000706688000103070024
:103440000000E800000F98002003070030079800F4
:103450003E0090000000E0005B0032003E00900063
:1034600080407800D0B12000014878003E009000F4
:10347000E80F500005003400E1B220001140780050
:103480000050A000804878004F003700E1B22000D3
:10349000114078000050A100804878004A003700B1
:1034A0002E089000D499020000000000E0B2200035
:1034B000104078000042B2000004E00004003A002E
:1034C000D0B1200010407800E84F500009003A00C9
:1034D000E0B22000104078000042B2000004E0009A
:1034E0000B003200D0B1200010407800F04F5000A7
:1034F00007003200B0C3B3006E7702000000000086
:10350000D0B12000104078001876020000000000C2
:10351000E0B2200010407800684060000004E00045
:10352000040032002E089000DC9A02000000000027
:10353000200F9800A1408000E00220000088B90020
:10354000E8004000E09320000080400090007800F8
:103550002E08900001000100100F980000C2B30077
:103560006E77020000000000E0B2200010407800FA
:103570000044B2000004E0001300320061002000AB
:1035800060692000169D020000000000E0B22000EB
:1035900010407800684060000004E0000400320041
:1035A0001E089000DC9A020000000000100F980036
:1035B0001E089000D49902000000000000C2B30071
:1035C0006E770200000000000E0890000000E90085
:1035D000000F98000E0890000000E000B0FF3A00D5
:1035E00010832800AC73020000000000DC003700EC
:1035F0006100200060692000169D020000000000AC
:10360000900207000000E800000F9800AF020700DA
:10361000300798003E0090000000E00042003200B9
:103620003E00900080407800D0B120000148780032
:103630003E009000E80F500005003400E1B2200089
:10364000114078000050A000804878003600370014
:10365000E1B22000114078000050A10080487800BD
:1036600031003700A1408000E00220000088B9004E
:10367000EA004000E0932000008040001000780045
:1036800000000100100F9800E0B220001040780008
:10369000684060000004E000040032001E08900052
:1036A000DC9A020000000000100F98001E08900035
:1036B000D499020000000000E0B220001040780021
:1036C0000042B2000004E00004003A00D0B1200043
:1036D00010407800E84F500009003A00E0B22000A6
:1036E000104078000042B2000004E0000B003200FD
:1036F000D0B1200010407800F04F50000700320099
:10370000B0C3B3006E77020000000000D0B120000B
:1037100010407800187602000000000000C2B300DC
:103720006E770200000000000E0890000000E90023
:10373000000F98000E0890000000E000C9FF3A005A
:1037400010832800AC7302000000000084003700E2
:1037500081002000C0692000A09D02000000000040
:10376000A1408000E00220000088B900EC00400089
:10377000E09320000080400010007800000001006D
:103780007700370081002000406A2000A09D0200E1
:1037900000000000A1408000E00220000088B90085
:1037A000EE004000E0932000008040001000780010
:1037B000000001006A003700E1002000C06A20001C
:1037C000A09D020000000000A1408000E002200057
:1037D0000088B900F0004000E09320000080400025
:1037E00010007800000001005D003700E1002000BB
:1037F000A06B2000A09D020000000000A1408000FE
:10380000E00220000088B900F2004000E0932000B0
:1038100000804000100078000000010050003700D8
:10382000C1002000B0672000169D020000000000CB
:10383000A1408000E00220000088B900F4004000B0
:10384000E09320000080400010007800000001009C
:103850006A7302000000000041003700F901070010
:10386000000F9800D1002000806D2000169D0200FE
:10387000000000000E089000D49902000000000033
:103880000E0890000000E800000F980008003700C4
:10389000A1408000E00220000088B900F60040004E
:1038A000E09320000080400010007800000001003C
:1038B0000E0890000000E900000F98000E0890002C
:1038C0000000E000F2FF3A0010832800AC73020011
:1038D0000000000022003700DA0107000000E800C5
:1038E000000F9800A1002000506E2000169D0200DD
:1038F000000000000D003700A1408000E002200021
:103900000088B900F8004000E093200000804000EB
:1039100010007800000001006A730200000000003F
:1039200000C2B3006E770200000000000E08900095
:103930000000E900000F98000E0890000000E00071
:10394000EDFF3A0001012000806C2000A09D0200E4
:103950000000000002003700100020008066880090
:10396000706680008000E800F00F2000008060009A
:1039700070668800806680000000E0001C00320055
:1039800051012000F06E2000169D02000000000092
:10399000BE08900070668000808F500007003100E4
:1039A00070668000804078003E08900000C05000A3
:1039B00018760200000000000600370070668000E4
:1039C000804078003E08900000C050001876020049
:1039D000000000000000EB0080668800100020005E
:1039E000500F980010832800AC7302000000000004
:1039F0007166800060668000808F500002003A008F
:103A000010002000500F98005E0890000000E000B9
:103A10000BFB32004E089000706688004E08900044
:103A2000606688000000EB00600F9800CBF637005E
:103A30000600FA000000EB00100798000000EB0001
:103A4000000F7800716680001E00900080804000AA
:103A5000F00F200080806000C0BC2000E1407800B2
:103A600000C3B30080CF50003E0034007166800078
:103A70001E00900080804000F00F200080806000D9
:103A8000C0BC2000E140780090C3B30080CF50005C
:103A900034003C00716680001E0090008080400071
:103AA000F00F200080806000C0BC200061407800E2
:103AB0008000FB0000FD2F00008F40001E009000E2
:103AC0000000E80010079800110037001E00780081
:103AD0006A00B900000F7800716680001E00900037
:103AE00080804000F00F200080806000C0BC20007B
:103AF000614078000000FB009E00400000FD2F00A8
:103B0000008F40001E0090000000E80010079800A1
:103B1000716680001E00900080804000F00F200041
:103B200080806000C0BC2000E1407800F0C2B3009B
:103B300080CF500036013400716680001E00900076
:103B400080804000F00F200080806000C0BC20001A
:103B5000E140780090C3B30080CF5000DBFF340019
:103B60002B013700716680001E00900080804000AD
:103B7000F00F200080806000C0BC2000E140780091
:103B800000C3B30080CF50001C013A001E0090001B
:103B90000000E80010079800716680001E00900089
:103BA00080804000F00F200080806000C0BC2000BA
:103BB000E140780020C6B30080CF50000A003200F8
:103BC000716680001E00900080804000F00F200091
:103BD00080806000C0BC2000E140780020C4B300B9
:103BE00080CF50002A003A001E0090000000E8003C
:103BF00010079800110037001E00780000004000F8
:103C0000000F7800716680001E00900080804000E8
:103C1000F00F200080806000C0BC20006140780070
:103C20000000FB009E00400000FD2F00008F4000C0
:103C30001E0090000000E8001007980071668000E8
:103C40001E00900080804000F00F20008080600007
:103C5000C0BC2000E140780010C3B30080CF50000A
:103C6000E5FF3200716680001E00900080804000F9
:103C7000F00F200080806000C0BC2000E140780090
:103C800000C3B30080CF5000DBFF3200E0003700FC
:103C9000716680001E00900080804000F00F2000C0
:103CA00080806000C0BC2000E140780080C7B30085
:103CB00080CF50000A003200716680001E00900024
:103CC00080804000F00F200080806000C0BC200099
:103CD000E140780080C5B30080CF500082003A00F8
:103CE0001E0090000000E800100798004100370017
:103CF0001E0078004400DD00000F7800716680002F
:103D00001E00900080804000F00F20008080600046
:103D1000C0BC2000E1407800F0C2B30080CF50006A
:103D200016003400716680001E0090008080400004
:103D3000F00F200080806000C0BC2000E1407800CF
:103D400090C3B30080CF50000C003C00716680002F
:103D50001E00900080804000F00F200080806000F6
:103D6000C0BC2000614078000000FB009E004000C5
:103D700000FD2F00008F40001B003700716680009F
:103D80001E00900080804000F00F20000081600045
:103D9000716680001E00900080804000F00F2000BF
:103DA00080806000C0BC2000E140780000C2B30009
:103DB00080C07000C0BC2000017178007166800076
:103DC0001E00900080804000F00F20008080600086
:103DD000C0BC2000614078000000FB009E00400055
:103DE00090FA2F00008F40001E0090000000E800B5
:103DF00010079800716680001E00900080804000CF
:103E0000F00F200080806000C0BC2000E1407800FE
:103E1000F0C2B30080CF50000A0034007166800009
:103E20001E00900080804000F00F20008080600025
:103E3000C0BC2000E140780090C3B30080CF5000A8
:103E4000ABFF3400716680001E009000808040004F
:103E5000F00F200080806000C0BC2000E1407800AE
:103E600000C4B30080CF50000A00340071668000A7
:103E70001E00900080804000F00F200080806000D5
:103E8000C0BC2000E140780060C4B30080CF500087
:103E900097FF3400716680001E0090008080400013
:103EA000F00F200080806000C0BC2000E14078005E
:103EB00000C6B30080CF500055003400716680000A
:103EC0001E00900080804000F00F20008080600085
:103ED000C0BC2000E140780060C6B30080CF500035
:103EE00083FF34004A003700716680001E00900096
:103EF00080804000F00F200080806000C0BC200067
:103F0000E1407800F0C2B30080CF500040003400A0
:103F1000716680001E00900080804000F00F20003D
:103F200080806000C0BC2000E140780090C3B300F6
:103F300080CF500036003C00716680001E0090006B
:103F400080804000F00F200080806000C0BC200016
:103F5000614078008000FB0000FD2F00008F4000D2
:103F6000110037001E0078006A00B900000F7800C9
:103F7000716680001E00900080804000F00F2000DD
:103F800080806000C0BC2000614078000000FB0021
:103F90009E00400000FD2F00008F40001E0090009A
:103FA0000000E80010079800716680001E00900075
:103FB00080804000F00F200080806000C0BC2000A6
:103FC000E1407800F0C2B30080CF50001000340010
:103FD000716680001E00900080804000F00F20007D
:103FE00080806000C0BC2000E140780090C3B30036
:103FF00080CF5000DBFF34000500370010002000A8
:10400000806688000000EB00200798000A00370057
:10401000716680001E00900000804000706688007D
:1040200071668000F00F20000080600070668800DC
:104030001E007800200798002E0090000080FA00F3
:10404000000006000400FA00706680008000E800AE
:10405000F00F200080806000C0BC2000E1407800AC
:10406000A0C3B30080CF500013003A0070668000F8
:104070000080E8007066880071668000F00F200004
:10408000008060007066880069FE0700000F7800FD
:10409000706680000000E90070668800716680002C
:1040A000F00F200000806000706688001E0078001D
:1040B0001007980002003700100020001007980039
:1040C0001E0090000080FA00000006000400FA00C4
:1040D000706680008000E800F00F200080806000A3
:1040E000C0BC2000E1407800B0C3B30080CF5000D6
:1040F0000F003A00706680008080E800F00F20001A
:10410000008060007066880049FE0700000F78009C
:10411000706680008000E900F00F200000806000E1
:10412000706688001E0078001007980002003700B3
:104130000000EB00100798001E0090000080FA00BD
:10414000000006000000FA000500370070668000DD
:104150008000E800F00F200000806000706688009A
:1041600071668000C0BC2000E140780000C2B3004E
:1041700080CF5000F5FF32000080FA0000000600FA
:104180000400FA000000EB00000F78007066800069
:104190008000E800F00F200000806000706688005A
:1041A000E8FF070022FE0700000F78001E00E00075
:1041B0004D003A000000EB00100798001300370094
:1041C0001E0090000040E800187602000000000089
:1041D0002088280080730200000000009E009000EC
:1041E000E00220000088B9006102200080804000C9
:1041F000E093200000804000AC730200000000004B
:104200001E0090000000E800100798001E009000BB
:10421000E70F5000EAFF34007101200040702000D9
:10422000A09D0200000000000000EB0080668800F6
:104230001300200082002000110020001000200048
:1042400055000700000FE900E0FF2F009E0F10004F
:10425000030032000080EB009E0F100005003A00C2
:10426000E1002000B0712000A09D020000000000CD
:1042700042003700A1408000E00220000088B90021
:104280000102200080804000E09320000080400078
:104290001000780000000100D29802000000000029
:1042A0001E007800A0408800A1408000E0022000AD
:1042B0000088B900FE004000E0932000008040002C
:1042C00010007800000001001E00E0000100320034
:1042D000C222A80051002000305A2000A09D0200F8
:1042E00000000000250037001E0FE90070002000CC
:1042F0009E0F10001D003C00A1408000E002200045
:104300000088B9000102200080804000E093200076
:10431000008040001000780000000100D2980200E8
:10432000000000001E007800A0408800A14080002E
:10433000E00220000088B900FE004000E093200069
:104340000080400010007800000001001E00E00026
:1043500001003200C222A80051002000305A200083
:10436000A09D020000000000040037005101200061
:1043700090722000A09D0200000000006066800096
:104380008000E900F00F2000008060007066880067
:104390000080FA00000006001E00FA00100F9800CE
:1043A000210F9800320F9800430F98000000EB0097
:1043B000400798000000EB00200798000000EB0089
:1043C000100798000000EB00000F780050882800CC
:1043D00080730200000000001E08900018760200A2
:1043E0000000000090882800807302000000000098
:1043F000670037005C77020000000000204F980043
:104400002E4890000000FB00600F98006E0890009E
:10441000ED0F500029003200EE089000ED8F5000A3
:1044200007003C006E099000E80F51000D003200BB
:104430006E089000EA0F500020003200350037006F
:10444000D0022000EE089000808F50001E00320045
:10445000800720006E099000800F51002700320075
:104460002C0037004E0090000000E00007003200F2
:104470004E0090000000E90040079800808128006D
:104480008073020000000000410037001E00E000C1
:10449000060032000000EB00000F78008081280049
:1044A00080730200000000003900370070C0B300C4
:1044B0006E77020000000000350037001000200079
:1044C00020079800320037004E0090000000E00006
:1044D00006003A00D0C2B3006E7702000000000070
:1044E00010002000000F78002900370070C0B300D2
:1044F0006E77020000000000250037004E08900093
:104500000000E000030032000080EB00500F980034
:104510005D003700AE489000F0C2B30080CF50007D
:1045200018003400AE48900090C3B30080CF500014
:1045300014003C004E009000E30F500006003400D1
:1045400070C0B3006E770200000000004000200041
:10455000400798000E0037002E4890006E7702004A
:1045600000000000CE0090006B0047002E49900034
:10457000827078004E0090000000E800400798002C
:104580000300370070C0B3006E7702000000000027
:104590002E0090000000E00096FF320010832800FB
:1045A000AC730200000000004E0090000000E0002C
:1045B00003003A001E089000500F980032003700A8
:1045C0000000EB00100798004E0090000000E9008A
:1045D00040079800CE009000310798001100370086
:1045E0001E0090006A00B90010079800BE009000FD
:1045F0004E009000808050006B00470061407800C2
:104600008000FB001E0090008080400000FD2F0015
:1046100000804000100798004E0090000000E90064
:10462000400798004E0090000000E000ECFF3D00C5
:104630009E0090002E089000808F50000D003500E5
:104640009E0090003E089000808F500009003C00C2
:104650001E00E000040032001E0090000000EA008E
:10466000500F9800080037001E019000520F98006C
:1046700005003700B1012000E0EA2000A09D020003
:104680000000000049FF37005E0890000080FA003B
:10469000000006000400FA00C088280080730200B1
:1046A00000000000A0812000104078006E7702001A
:1046B0000000000010832800AC730200000000001E
:1046C000A08928008073020000000000D1002000B3
:1046D00070802000169D020000000000A1BF2A008B
:1046E0000000EB00C878020000000000000F780016
:1046F0001E0078004800DE0018760200000000006E
:10470000E0C2B3006E770200000000001E007800D7
:10471000187602000000000010832800AC7302002D
:10472000000000006100200000762000169D0200BD
:1047300000000000B0408000CA76020000000000C7
:104740007100200070EA2000169D020000000000A9
:10475000C0408000CA76020000000000208B2800C4
:104760008073020000000000C04080001007980025
:10477000200423009E009000808F5000160032001D
:10478000200423009E009000808F500005003E0012
:10479000300023009E009000808F50000A003200FD
:1047A00019003700300423009E009000808F5000D5
:1047B0000D003200600423009E009000808F5000A6
:1047C0000D00320010003700108C280080730200AA
:1047D000000000000F003700408C280080730200AA
:1047E000000000000B003700708C2800807302006E
:1047F0000000000007003700A08C28008073020032
:104800000000000003003700D08C280080730200F5
:1048100000000000108D2800AC73020000000000B2
:10482000E101200060762000A09D02000000000051
:104830000080FA00000006000000FA00510020008D
:1048400020922000169D020000000000C1BF2A0037
:104850000000EB00C878020000000000CA760200E9
:10486000000000006100200070922000169D0200F0
:1048700000000000E1BF2A000000EB00C878020041
:1048800000000000CA76020000000000108328002B
:10489000AC73020000000000C1002000407820003E
:1048A000A09D02000000000070000700C2C2BF000F
:1048B000614060000004E0000500320011012000AA
:1048C00080652000169D02000000000004003700F3
:1048D0002101200090662000169D020000000000CB
:1048E000C0C2B3006E7702000000000000C2B30037
:1048F0006E77020000000000CBC2BF00684060007D
:104900000004E0000500320041012000506020005A
:10491000169D020000000000040037005101200035
:10492000005F2000169D020000000000C0C2B3001E
:104930006E7702000000000000C2B3006E77020034
:1049400000000000E0B220001040780070406000DD
:104950000004E00005003200210220000079200060
:10496000A09D02000000000004003700E1012000CB
:10497000207B2000A09D020000000000E0B220008B
:1049800010407800684060000004E00005003A0034
:10499000B1012000007D2000169D020000000000F3
:1049A00004003700C1012000B07E2000169D0200E7
:1049B00000000000C0C2B3006E77020000000000DB
:1049C00000C2B3006E77020000000000B1012000B9
:1049D00010192100169D020000000000D0B1200037
:1049E00010407800187602000000000010832800B4
:1049F000AC73020000000000E0B22000104078001C
:104A000063406000E14F500005003A005101200072
:104A1000E05B2000A09D02000000000004003700C1
:104A200061012000805A2000A09D020000000000CB
:104A3000A1408000E00220000088B900410220006F
:104A400080804000E093200000804000100078004B
:104A500000000100C100200040782000A09D02005D
:104A6000000000000080FA00000006000000FA00CC
:104A7000A1002000A0052100A09D02000000000070
:104A800061042000200B2100A09D02000000000016
:104A9000A101200040062100169D02000000000038
:104AA000A1408000E00220000088B900210220001F
:104AB00080804000E09320000080400010007800DB
:104AC00000000100A1002000E0072100169D020067
:104AD00000000000004020005000070000102000EF
:104AE0004E000700002020004C00070000042000BA
:104AF0004A00070000082000480007001083280033
:104B0000AC7302000000000041002000800F210073
:104B1000169D02000000000021E3A800A0C0B30021
:104B20001C990200000000000C7702000000000049
:104B300011002000903A2000169D020000000000A5
:104B400090C0B3006E7702000000000090C0B30078
:104B50001C990200000000000C7702000000000019
:104B600011002000903A2000169D02000000000075
:104B700090C0B3006E77020000000000C0C0B30018
:104B80001C990200000000000C77020000000000E9
:104B900011002000903A2000169D02000000000045
:104BA00090C0B3006E77020000000000B0C0B300F8
:104BB0001C990200000000000C77020000000000B9
:104BC00011002000903A2000169D02000000000015
:104BD00090C0B3006E7702000000000021E3A9003E
:104BE000004020001C000700001020001A000700F1
:104BF0000020200018000700000420001600070015
:104C0000000820001400070010832800AC73020085
:104C1000000000000080FA00000006000200FA0018
:104C2000000F7800401680001E0060000000E000C9
:104C300004003200308D2800807302000000000064
:104C400003003700608D2800807302000000000020
:104C50000080FA00000006000200FA00000F780051
:104C6000501680001E0060000000E00004003200CA
:104C7000908D2800807302000000000003003700C0
:104C8000C08D280080730200000000000080FA0040
:104C9000000006000200FA00706680008000E80054
:104CA000F00F2000008060007066880025FD07007E
:104CB0005FFB0700000F78001E00E00006003400D4
:104CC000400020009E0F100003003C001E00E90081
:104CD000904088000D0037000000EB0080668800DF
:104CE0002102200040812000A09D02000000000061
:104CF0008001EB0042002000110020001000200085
:104D0000A5FD07000000E900904088002101200077
:104D100060832000A09D0200000000000080FA00D7
:104D2000000006000200FA000040EB00004F78008F
:104D3000706680008000E800F00F200000806000B6
:104D400070668800FFFC070039FB070010479800D9
:104D50001E4090000004E000090032001E40900058
:104D6000EA4F500006003E001E4090000040E9005F
:104D70008040780000812000014878000F00370053
:104D80000000EB0080668800D108200030872000FA
:104D9000A09D0200000000008001EB00A2002000A6
:104DA00011002000900020007BFD07000040E9007A
:104DB00080407800008120000148780000812000B8
:104DC00010407800E94F500010003A00DDFC070069
:104DD00017FB0700004F78001E04E0000B003A00AC
:104DE0000000EB0080668800F08D2800AC730200A4
:104DF000000000008001EB00F2FF27008000EB00C4
:104E00002002200064FD0700004F780041012000CF
:104E100000902000A09D0200000000001101200071
:104E200000182100A09D02000000000023C2BF0066
:104E3000614060000004E000FCFF320000812000BF
:104E400010407800E94F500003003A001E407800FF
:104E50008C77020000000000A6990200000000000C
:104E60000000370050770200000000000004E0005E
:104E7000FCFF32005C7702000000000080407800F8
:104E800000C2B30080CF500001003200F5FF3700B0
:104E90000080FA00000006000000FA008170800027
:104EA00080E12000E140780030C8B30080CF50009E
:104EB0000D003A00807080000000E80080708800DB
:104EC00003003700807080000000E80080708800D8
:104ED0008170800080E12000E140780000CEB300C6
:104EE00080CF5000F7FF36000080FA000000060077
:104EF0000A00FA00300798000000EB002007980035
:104F0000AE00900080E12000E140780000CEB300C8
:104F100080CF500003003E000080EB004007980067
:104F200020003700AE00900080E120006140780052
:104F30008080FB0000F22F000080400010079800E6
:104F40002E0090008000E80080E1200061407800A1
:104F50000080FB004801DD002E0090008080E8000A
:104F600080E12000614078000080FB00000F4100DC
:104F70009E0078003E009000808F500003003A00B1
:104F80002E00900040079800060037009E00900019
:104F90002E00900000804000630040002007980031
:104FA000D7FF37004E0090000080FA000000060096
:104FB0000600FA00881F78000000EB00000F780060
:104FC0008170800080E12000E140780080C2B30061
:104FD00080CF50000F003A00807080000000E80091
:104FE0008070880011010700000F78008170800038
:104FF00080E12000E140780090C2B30080CF5000F3
:10500000B2003A00807080000000E80080708800E4
:10501000AE0037008170800080E12000E140780020
:1050200000C4B30080CF50001400360081708000AF
:1050300080E12000E1407800A0C5B30080CF50009F
:105040000E003E008270800080E120006240780007
:105050008080FB00F0FB2F000080400080004000BB
:1050600000DB20000080400010007800200798003E
:105070000200E80080708800960037008170800090
:1050800080E12000E140780000C8B30080CF5000EC
:10509000820036008170800080E12000614078004D
:1050A0000080FB00100798000100E8008070880075
:1050B000700920009E009000808F50004A0032004E
:1050C000700920009E009000808F50000D003C0071
:1050D000400920009E009000808F50001F00320089
:1050E000600920009E009000808F50003400320044
:1050F000300920009E009000808F50002100320077
:1051000056003700A00920009E009000808F5000BC
:105110003F003200A00920009E009000808F5000C8
:1051200005003C00800920009E009000808F500008
:105130004300320049003700B00920009E00900073
:10514000808F500037003200D00920009E00900070
:10515000808F50001600320040003700A1408000D0
:10516000E00220000088B900EA004000E09320003F
:10517000008040001000780000000100000F78005F
:1051800052003700A1408000E00220000088B900F2
:10519000E8004000E0932000008040001004780008
:1051A000A200070008000100000F78004700370048
:1051B0009E81020000000000000F780043003700CD
:1051C000A1408000E00220000088B900F400400007
:1051D000E0932000008040001000780000000100F3
:1051E000000F780039003700A1408000E002200065
:1051F0000088B900F8004000E093200000804000E3
:105200001000780000000100000F78002F00370028
:10521000C2C2BF00614060000080FB00000F780048
:105220002A003700CBC2BF000080FB004300DE0035
:10523000614060000080FB00008FEA00230037001F
:1052400021E3A800C0C0B3001C99020000000000C8
:10525000000F780021E3A9001C0037000000EB00DC
:10526000000F7800190037001E0078006A00B900AE
:10527000000F78008170800080E12000614078009C
:105280000080FB009E00400000FD2F00008F4000CA
:10529000807080000000E8008070880081708000CD
:1052A00080E12000E1407800F0C2B30080CF5000E0
:1052B000060036008170800080E12000E140780027
:1052C00090C3B30080CF5000E7FF36001E00780087
:1052D000200798002E0090004F0478000080FA000C
:1052E000000006000600FA0031FF0700000F7800FA
:1052F000000037008170800080E12000E1407800EC
:10530000A0C2B30080CF5000150032008170800031
:1053100080E12000E1407800F0C2B30080CF50006F
:105320000F0032008170800080E12000E1407800B1
:1053300060C2B30080CF500009003200817080004D
:1053400080E12000E1407800C0C7B30080CF50006A
:10535000030032001E00780020079800300037005C
:105360008170800080E12000614078000080FB00B7
:10537000100798000100E80080708800A00220005B
:105380009E009000808F500012003200A00220008A
:105390009E009000808F500005003C0060022000BD
:1053A0009E009000808F500017003200D1FF370020
:1053B000F00220009E009000808F50000B00320011
:1053C000C00720009E009000808F50001100320026
:1053D000C8FF3700F6FE0700800078001E00780046
:1053E0000180B900000F7800C2FF3700F0FE07000F
:1053F000000178001E007800110009000200D800AA
:10540000000F7800BBFF3700E9FE07001E0F6000A9
:10541000B8FF3700E6FE07001E0F7000B5FF37002B
:105420002E0090000080FA00000006001200FA0032
:10543000ACFF0700000F780000003700817080008B
:1054400080E12000E1407800D0C2B30080CF50005E
:105450001B0032008170800080E12000E140780074
:10546000B0C2B30080CF50001500320081708000C0
:1054700080E12000E1407800C0C3B30080CF50003D
:105480000F0032008170800080E12000E140780050
:10549000E0C3B30080CF500009003200817080006B
:1054A00080E12000E1407800D0C3B30080CF5000FD
:1054B000030032001E0078002007980081003700AA
:1054C0008170800080E12000614078000080FB0056
:1054D000100798000100E80080708800C0032000D9
:1054E0009E009000808F50003A003200C0032000E0
:1054F0009E009000808F500009003C00B002200008
:105500009E009000808F500011003200D0022000D9
:105510009E009000808F50000A003200C7FF3700C5
:10552000D00320009E009000808F50005B0032006E
:10553000E00320009E009000808F500007003200A2
:10554000BEFF370067FF07001E0F1000BBFF3700CC
:1055500064FF07001E0F4000B8FF37008070800016
:105560008000E80080E12000E1407800D0C3B30073
:1055700080CF50000D003A005AFF07008000EB007A
:10558000310798009E0F500002003E0010002000DE
:1055900030079800BE009000010F780080708000F6
:1055A0000000E80080708800A4FF37004DFF07006E
:1055B0008000EB00410798009E0F50000200310070
:1055C0001000200040079800CE009000010F7800E6
:1055D0009AFF3700807080008000E80080E12000A2
:1055E000E1407800E0C3B30080CF50000D003A00E6
:1055F0003CFF07008000EB00510798009E0F500011
:10560000020032001000200050079800DE009000D9
:10561000010F7800807080000000E8008070880032
:1056200086FF3700807080008000E80080E1200065
:10563000E1407800D0C3B30080CF50000D003A00A5
:1056400028FF07008000EB00610798009E0F5000C4
:10565000020039001000200060079800EE00900062
:10566000010F7800807080000000E80080708800E2
:1056700072FF37001BFF07008000EB0071079800E6
:105680009E0F5000020036001000200070079800A6
:10569000FE009000010F780068FF370011FF07003F
:1056A0008000EB00010F98009E0F500002003A00AE
:1056B00010002000000F98008E089000010F780065
:1056C0005EFF37002E0090000080FA000000060008
:1056D0001C00FA00881F78000000EB008070880032
:1056E0000000EB00300798000000EB002007980056
:1056F0000000EB00100798000000EB00907088009D
:105700000000EB00A07088000000EB00B070880083
:105710000000EB0050079800D04080000080A000FF
:10572000D04088000000EB004007980009003700D7
:105730004E0090008000400000DB20008080400090
:105740000000EB00800878004E0090000000E800A8
:10575000400798004E009000F90F5000F4FF34000D
:105760000B0437001E0090000000E0001D003A000E
:105770008170800080E12000E1407800F0CDB3002E
:1057800080CF500003003E0020002000300798002A
:10579000020437008170800080E1200061407800C1
:1057A0008080FB0000F22F0000804000600798001E
:1057B000807080008000E80080E120006140780077
:1057C0000080FB004801DD00807080008080E800E0
:1057D00080E12000614078000080FB000000710043
:1057E000500798000000EB001007980080708000C0
:1057F000E300400080E12000614078000080FB0071
:105800006101B90000F82F00F1FF2F0002014000F4
:1058100083814800420F9800530F98001002200027
:10582000010020004E099000DE099000800F510019
:10583000818F5900CA033E004E089000DE08900098
:10584000006001002100370034003700C403370036
:10585000C30337006C0037007C0037009E00370020
:10586000B2003700B90037002B0137007301370051
:10587000BB033700D50137001B0237007702370022
:105880008D0237007D023700A902370099023700E8
:10589000B6023700B203370054033700380337002D
:1058A000AF033700AE033700DE023700CE02370009
:1058B0007B03370089033700BC023700EE02370054
:1058C0000E03370091033700A203370010002000B9
:1058D000200798008070800066004000807088007B
:1058E000807080008080E90080E1200061407800C5
:1058F0008080FB00F0FB2F0000844000CBFE0700FF
:10590000000178008800440000DB20000080400097
:105910000208780060FD07009303370010002000A4
:10592000200798008070800064004000807088002C
:10593000BEFE07000000E0001B0032008170800006
:10594000310F980080E120003E099000E24078008D
:105950008041EB004357980020C8B30080CF50002F
:1059600002003A0010C0B30040579800BE089000F3
:105970000100E800807088004E5190000204E000B1
:10598000790332001000200010079800807080001A
:1059900063005000807088007303370080708000BF
:1059A0000000E800807088008170800080E12000A5
:1059B000E140780030C8B30080CF500006003200CC
:1059C0008170800080E12000E140780000CEB300CB
:1059D00080CF5000F1FF36008170800080E1200010
:1059E000E140780030C8B30080CF50005E033A0039
:1059F0001000200010079800807080000080E900EF
:105A0000807088005803370010002000200798009D
:105A100080708000640040008070880083FE070072
:105A200033FD0700000F78008081EB009E8F11008E
:105A3000030032001E007800807088004A0337009F
:105A40006000200030079800470337001000200056
:105A500020079800807080006400400080708800FB
:105A6000A0708000E90F500018003C00A270800078
:105A7000817080006E009000008040008001E9008D
:105A80008200410040DE20000080400003087800D2
:105A9000A07080000000E800A070880063FE07008E
:105AA00013FD0700000F78008080EB009E8F100030
:105AB000030032001E017800827088002A0337003C
:105AC0006000200030079800270337007000200096
:105AD00030079800240337004091280080730200AB
:105AE000000000001000200020079800A070800037
:105AF0000000E0000A003200A07080000000E90011
:105B0000A0708800A07080008000400040DE20006F
:105B10000080400010007800807088001203370079
:105B200080002000300798000F033700100020008D
:105B300020079800817080006E0090000080400077
:105B400063004000807088000703370010002000C9
:105B500020079800807080006400400080708800FA
:105B60004F0037008170800080E12000E140780024
:105B700020C2B30080CF50001D003A00807080002A
:105B80000000E800807088000F003700D0408000DF
:105B90000080A100D04088008170800080E120005A
:105BA00061407800004178000100E80080708800C2
:105BB000024078006E77020000000000D0408000B4
:105BC0000080A000D04088008170800080E120002B
:105BD000E140780020C2B30080CF5000EBFF3A00D4
:105BE000807080000000E800807088002C00370082
:105BF0008170800080E12000E140780000C4B300A3
:105C000080CF5000060036008170800080E12000C7
:105C1000E1407800A0C5B30080CF50000B003600F3
:105C20008170800080E12000614078000004E00085
:105C300012003D008170800080E12000E14078008A
:105C4000F0CDB30080CF50000C003E00F7FD070000
:105C5000000F7800D04080000080A100D040880074
:105C60001E007800BA75020000000000D0408000DD
:105C70000080A000D04088000900370081708000BB
:105C800080E12000E1407800B0C3B30080CF500035
:105C900003003A00807080000000E80080708800F7
:105CA0008170800080E12000E1407800F0CDB300F9
:105CB00080CF500006003E008170800080E120000F
:105CC000E140780030C8B30080CF5000A5FF3A0013
:105CD000807080008000E90080E12000E1407800D1
:105CE000B0C3B30080CF500009003200D040800024
:105CF0000080A100D0408800A09A2800AC73020068
:105D000000000000D04080000080A000D04088004B
:105D100061FC070094023700100020002007980063
:105D2000D04080000080A100D040880080708000BA
