:020000040000FA
:100000000002040000000000FA940000FA940000CE
:10001000FA940000FA940000FA940000FA940000A8
:10002000FA940000FA940000FA940000FA94000098
:10003000FA940000FA940000FA940000FA94000088
:10004000FA940000FA940000FA940000FA94000078
:10005000FA940000A6690000CC690000FA94000040
:10006000FA940000FA940000FA940000FA94000058
:10007000FA940000FA940000FA940000FA94000048
:10008000FA940000FA940000FA940000FA94000038
:10009000FA940000FA940000FA940000FA94000028
:1000A000FA940000FA940000FA940000FA94000018
:1000B000FA940000FA940000FA940000FA94000008
:1000C000FA940000FA940000FA940000FA940000F8
:1000D000FA940000FA940000FA940000FA940000E8
:1000E000FA940000FA940000FA940000FA940000D8
:1000F000FA940000FA940000FA940000FA940000C8
:10010000FA940000FA940000FA940000FA940000B7
:10011000FA940000FA940000FA940000FA940000A7
:10012000FA940000FA940000FA940000FA94000097
:10013000FA940000FA940000FA940000FA94000087
:10014000FA940000FA940000FA940000FA94000077
:10015000FA940000FA940000FA940000FA94000067
:10016000FA940000FA940000FA940000FA94000057
:10017000FA940000FA940000FA940000FA94000047
:10018000FA940000FA940000FA940000FA94000037
:10019000FA940000FA940000FA940000FA94000027
:1001A000FA940000FA940000FA940000FA94000017
:1001B000FA940000FA940000FA940000FA94000007
:1001C000FA940000FA940000FA940000FA940000F7
:1001D000FA940000FA940000FA940000FA940000E7
:1001E000FA940000FA940000FA940000FA940000D7
:1001F000FA940000FA940000FA940000FA940000C7
:10020000FFFFFF00FFFFFF00FA940000FA940000D8
:10021000FA940000FA940000FA940000FA940000A6
:10022000FA940000FA940000FA940000FA94000096
:10023000FA940000FA940000FA940000FA94000086
:10024000FA940000FA940000FA940000FA94000076
:10025000FA940000A6690000CC690000FA9400003E
:10026000FA940000FA940000FA940000FA94000056
:10027000FA940000FA940000FA940000FA94000046
:10028000FA940000FA940000FA940000FA94000036
:10029000FA940000FA940000FA940000FA94000026
:1002A000FA940000FA940000FA940000FA94000016
:1002B000FA940000FA940000FA940000FA94000006
:1002C000FA940000FA940000FA940000FA940000F6
:1002D000FA940000FA940000FA940000FA940000E6
:1002E000FA940000FA940000FA940000FA940000D6
:1002F000FA940000FA940000FA940000FA940000C6
:10030000FA940000FA940000FA940000FA940000B5
:10031000FA940000FA940000FA940000FA940000A5
:10032000FA940000FA940000FA940000FA94000095
:10033000FA940000FA940000FA940000FA94000085
:10034000FA940000FA940000FA940000FA94000075
:10035000FA940000FA940000FA940000FA94000065
:10036000FA940000FA940000FA940000FA94000055
:10037000FA940000FA940000FA940000FA94000045
:10038000FA940000FA940000FA940000FA94000035
:10039000FA940000FA940000FA940000FA94000025
:1003A000FA940000FA940000FA940000FA94000015
:1003B000FA940000FA940000FA940000FA94000005
:1003C000FA940000FA940000FA940000FA940000F5
:1003D000FA940000FA940000FA940000FA940000E5
:1003E000FA940000FA940000FA940000FA940000D5
:1003F000FA940000FA940000FA940000FA940000C5
:100400006FD621000E7F22000E0188000000000040
:100410000C00070040AB280001002000110007007D
:10042000000020000000E000020032000000020096
:1004300000000000B2920200000000000040DA005C
:100440000000FE004440A900801C20000000E000E5
:100450000300320000002000A00188004440A800F2
:100460000000060091018800800078000000EB0089
:1004700015003700E280400032A0B4009101BA00BC
:10048000E280400032A0B4009102BA00E280400055
:1004900032A0B4000002EB00472BDE00F507B200EB
:1004A000602CE10004003A000059EB008301E900F0
:1004B000FDFF3E00040037006128E100010032002A
:1004C0000082EB00040007001101BA000200E00006
:1004D000E8FF3A00000006003159BA008301E90044
:1004E0000C0032002159BA008301E90008003200F3
:1004F0000400E00003003A00E280400032A0B400B3
:10050000F5FF370011D9BA008301E900FAFF3A007C
:100510008100E800E180400032A0B4000000060045
:1005200000000000000000000000000000000000CB
:1005300000000000000000000000000000000000BB
:1005400000000000000000000000000000000000AB
:10055000000000000000000000000000000000009B
:1007D000889FBE008A9FBE00010578000100E000EE
:1007E0000400350008003C000000E000200032005A
:1007F0000500370060001000E080180002003B0098
:1008000001F02C001A0037000004BE006011B8008F
:100810006B0920000982CF00020039000882CF0056
:100820000441B000694252000E00320008003B0053
:1008300082817100610164008904D1000884D300C1
:100840008B05E8000442E800F9FF3A000500370094
:100850000804440089844C008B05E9000442E90047
:10086000FBFF3A000B0107000AF0A70001F0A0000F
:100870004F05BE004F04BE0000000600F4FF2F002D
:100880002A0137001400200028013700889FBE008D
:100890008A9FBE008C1F78003F010700460133008D
:1008A00003866C006450E1002E0032006420E100F9
:1008B000330032006150E1002F0032006120E1007E
:1008C0003100320085855500EB07B000090020009B
:1008D00008042000050037000804440089844C0007
:1008E0000A0031000603430087834B0000015300D8
:1008F00081815B00F8FF33000203BE000800A00006
:100900000804440089844C00F6FF3900C639DD0034
:100910008301730001003200130020008904D1001C
:100920000884D3000998A300050032000800A7003E
:100930000300A0008904D1000884D3008B05E800DF
:100940008904D1000884D3000001EB000281D200A9
:10095000D000070001F0A1000CF0A70001F0A000FA
:100960001E0137006420E100200132000801BE00B2
:100970000200BE00F7FF37006120E1001B013200DA
:100980006000B800F3FF37000000200001F82700E6
:10099000F0FF370003F0A200889FBE008A9FBE00D0
:1009A0008C1F7800FC000700030133006450E10055
:1009B0004F0032006420E1005200320003826C00DC
:1009C00007003B000905D0000306D000820F540049
:1009D0000C065D0002003900020032008901780037
:1009E000030678008582550004003D000003FD00E9
:1009F0008103FD008502EA008B854200840F7200AE
:100A000002003B0060001000E08018006011B80098
:100A10000005EB007A28E1000A00390006007800A2
:100A2000C75DDD00F707B200878075002D00370035
:100A3000828171000A017800610560008180D10027
:100A40000080D3008502E900F9FF3B000604400066
:100A50008784480002003B0060041400E0841C000E
:100A60000988A300070032008A8171008281710029
:100A7000610164008904D1000884D3008B05E8007B
:100A8000170037000978A30013003A000B00E000BC
:100A9000130034008B05E9000804440089844C00ED
:100AA0000A4474000978A3000D003A000B00E0002E
:100AB000070034008B05E9000804440089844C00D9
:100AC00001003A000B0020000978A300F7FF320074
:100AD0000001EB0002003700828171000A017800FA
:100AE0006C0007000CF0A70001F0A000BB0037006D
:100AF0006420E10002003A00838F6C00BB003300E9
:100B00000801BE000200BE00B4003700889FBE008E
:100B10008A9FBE008C1F78009F000700A60033004C
:100B200003866C006450E100240032006420E10080
:100B3000270032006150E100220032006120E10014
:100B4000210032008B854200EB07B1000134B80070
:100B5000003AB8000804420089844A00013AB8000B
:100B60000030B8008880400009014A0004003300CA
:100B70000000400081804800020149008B05E90027
:100B8000C909DD008301700001003200130020005C
:100B9000C814DE004814DD004709DE001200B20070
:100BA000C808DE00088470003A00070001F0A100C8
:100BB0000CF0A70001F0A000880037006120E100E0
:100BC0008A0032000801BE000200BE00F7FF3700B5
:100BD0006150E100FCFF3A00840037000001BE00D4
:100BE000850007000470A70003F0A10003F8A3002C
:100BF00013003A006509B100100032000900350009
:100C00006928E1000200350001002800000005000D
:100C100000004000818048008502E900FCFF3A00A6
:100C200000000600F88F4200050035008100D10069
:100C30000080D3008502E800FCFF3A0000000600B7
:100C40008000EB00000005006022B80006022000D2
:100C50000000D0008180D2000482D2008582D200C0
:100C60000000A0000202520083825A0003003100FB
:100C70000202420083824A000000A1000603E9004C
:100C8000F3FF3A0000000600EFFF07000400BE007B
:100C90000000060081002000618055000B003D002F
:100CA0000B00200061FE2F000100E1001D00340058
:100CB00082817100610164008904D1000884D3003D
:100CC0000000E800FAFF3A007100200061006400B3
:100CD000030070000200600009003200610444005B
:100CE000E0844C000988A500050032008B05E8006F
:100CF0006808E10002003A008904D1000884D300AA
:100D0000F20F20000258E10005003D00C75DDD0044
:100D1000F907B2008980750008007800000006001D
:100D20000BF827008B00780000000500889FBE00AC
:100D30008A9FBE00841F7800170007004F007800CC
:100D400011003300F0FF2F00838F6C0006003B0082
:100D5000040565000A00A7000800370009F0A60096
:100D60001000200008003700820F5400838F5C00C1
:100D7000030039001000200001003E0000002000A8
:100D800009F0A7000000EA004F05BE004F04BE00B6
:100D90000000E000000006000004BE00160007008E
:100DA0000003BE000405BE000200BE0012000700E2
:100DB000844F7500000006000200BE006450E10090
:100DC000050036006420E100020036000968A30037
:100DD00001003A000800BE000160A0004F06780044
:100DE0004F05BE004F04BE0000000600F0FF2F00BC
:100DF000F1FF2700F9FF3700C70ADE00F107B20054
:100E0000F50FB20008003200E1CF420002003200CC
:100E10000170A00024000500810F70000100320065
:100E20000408050044000500810F700002003A002C
:100E3000140005008502E9000000400081C0480060
:100E4000FCFF3B000170A000240005003E000000F4
:100E500008200000080000001B5B000044000000A8
:100E60001B5B000000440000001B00005B4300000F
:100E7000001B00005B3200004B0D0000004300002F
:100E8000000000001B5B000032440000005700001F
:100E9000617200006E6900006E6700003A20000079
:100EA0006E6F0000207600006F6C0000746100001F
:100EB00067650000206F00006E2000005670000083
:100EC000756C00006C7500007020000070690000F7
:100ED0006E000000203D000020000000565200007F
:100EE00045470000207400006F6F0000206C000078
:100EF0006F7700002C200000697300002074000050
:100F00006865000072650000206100002073000029
:100F1000686F0000727400003F0000002E20000087
:100F20003C0000002E200000000D00000A280000F8
:100F300000780000002900003E000000427500001B
:100F400073200000506900007261000074650000A9
:100F50002076000033000000206300006C6F00006A
:100F60006E650000207700002F64000069660000B5
:100F700066650000726500006E740000205000007D
:100F80004943000000460000697200006D770000D0
:100F90006172000065200000763600002E310000EE
:100FA00020720000313600003736000020000000BB
:100FB0002028000032340000464A00003634000089
:100FC00047410000303000000034000020000000E5
:100FD00032200000004100003300000042340000D5
:100FE00000420000350000004238000000550000BB
:100FF0004E4B0000002900000049000009000000DD
:101000004F09000000480000090000004C090000E2
:10101000004500006E740000657200002072000040
:101020006177000020760000616C000075650000AB
:10103000206600006F72000020420000524700004E
:1010400000000000000000000000000000000000A0
:101050002C01000000000000580200000000000009
:10106000B004000000000000600900000000000063
:10107000C0120000000000008025000000000000F9
:101080004038000000000000004B0000000000009D
:1010900080700000000000000096000000000000CA
:1010A000C0DA00000000000000E1000000000000C5
:1010B00000C200000100000000F400000100000078
:1010C00000E800000300000041520000543100001D
:1010D00000000000306200000030000030300000EE
:1010E0002C000000303000000030000031320000E1
:1010F0003334000035360000373800003941000035
:1011000042430000444500004630000078000000E3
:10111000436F0000756C0000646E000027740000CF
:10112000206B0000656500007020000075700000F5
:101130000000000053500000493100000000000092
:10114000002900000020000057000000205200008D
:101150000049000032430000310000003A20000046
:10116000000000002E000000315700003031000068
:1011700000000000314100004C530000004200001C
:101180005076000033000000080800000808000046
:101190000800000000000000204800007A00000065
:1011A0000000000042420000494F000031000000F2
:1011B0005241000057310000000000004F43000082
:1011C00044310000000000000000000000000000AA
:1011D0002900000000000000000000002800FA00C4
:1011E0000000EB00600F98000000EB000064880036
:1011F0000000EB00F0638800F06380002007980097
:101200000000EB00100798000000EB00000F7800D2
:101210000000EB00A04088000000EB0050079800A1
:101220000000EB00106488000000EB00400798000D
:101230000000EB00000F9800130037000000EB00E7
:10124000600798000A0037000E089000EE0090003A
:101250004500DD000101400041C820000040EB00D6
:1012600000F178006E0090000000E8006007980030
:101270006E009000FF0F5000F3FF34000E08900046
:101280000000E800000F98000E089000E40F5000E6
:10129000EAFF34000000EB0020698800A1408000D4
:1012A000E00220000088B900610220008080400038
:1012B000C0922000008040002E6402000000000068
:1012C000D140800000202000008060000000E0008D
:1012D0000400320071002000E0562000768F0200EA
:1012E00000000000607228002E6402000000000070
:1012F0001C043700206980000000E0005E0032001E
:10130000206980000000E900206988000000EB00EF
:10131000600798001B003700F2638000206980009E
:10132000EE0090004500DD008100400040C8200034
:10133000E1407800E0B7200001717800206980006A
:10134000EE0090004500DD008100400040C8200014
:10135000614078003069020000000000F063800006
:101360000000E800F06388006E0090000000E800D4
:1013700060079800F1638000F00F2000008060009B
:10138000F063880020698000EE0090004500DD00D9
:101390008100400040C82000614078000004E00067
:1013A000DDFF3A000000EB002069880032003700C2
:1013B00080AE200010407800644060000004E0002F
:1013C0002D003200A1408000E00220000088B9001A
:1013D000FA004000C0922000008040001000780019
:1013E000000001000000E00023003200A140800066
:1013F000E00220000088B9006102200080804000E7
:10140000C0922000008040002E6402000000000016
:10141000607228002E640200000000000164800059
:10142000F0638000808F5000130032000064800061
:10143000600798000C003700EE009000E0B7200035
:10144000614078003069020000000000EE0090006A
:10145000F00F200000806000600798006E00900090
:101460000000E80060079800EE009000F063800044
:10147000808F5000F0FF3A00526802000000000028
:101480000004E000CAFF32005A69020000000000B8
:101490000004E000030032006A690200000000005E
:1014A000B00337001069020000000000604F980090
:1014B0006E4890000080FB006101B900021798009F
:1014C00013179800F0072000010020000E11900073
:1014D0009E119000800F5100818F590034033E000F
:1014E0000E1090009E10900000600100270337004E
:1014F000DD0237004D0137002D033700D3003700E0
:10150000F402370062013700290337007700370003
:10151000270337000A033700250337002403370069
:101520000703370004023700210337006901370041
:101530001F0337001E0337001D0337001C0337004D
:101540001B0337001A03370019033700180337004D
:101550001703370016033700F9003700140337006C
:10156000130337001203370011033700100337004D
:101570000F0337000E0337000D0337000C0337004D
:101580000B0337000A03370009033700080337004D
:10159000070337000603370005033700040337004D
:1015A000030337000203370001033700000337004D
:1015B000FF023700FE023700FD023700FC02370051
:1015C000FB023700FA023700F9023700F802370051
:1015D000F7023700F6023700F5023700F402370051
:1015E000F3023700F2023700F1023700F002370051
:1015F000EF023700EE023700ED023700EC02370051
:10160000EB023700EA023700E9023700E802370050
:10161000E7023700E6023700E5023700E402370050
:10162000E3023700E2023700E1023700E002370050
:10163000DF023700DE023700DD023700DC02370050
:10164000DB023700DA023700D9023700D802370050
:10165000D7023700D6023700D5023700D402370050
:10166000D3023700D2023700D1023700D002370050
:10167000CF023700CE023700CD023700CC02370050
:10168000CB023700CA023700C9023700C802370050
:10169000C7023700C6023700C5023700C402370050
:1016A000C3023700C2023700C1023700C002370050
:1016B000BF023700BE023700BD023700BC02370050
:1016C000BB023700BA023700B9023700B802370050
:1016D000B7023700B6023700B5023700B402370050
:1016E000B3023700B20237005800370001648000AF
:1016F0002E009000810F500050003200F1638000F6
:101700002E009000810F50000F003A00F06380001F
:101710008000E900F00F200000806000F063880086
:10172000F2638000E1B720000040EB0000F1780098
:10173000F163800021079800807228002E64020067
:1017400000000000070337000000EB00000F9800C6
:101750002E0090008000E900F00F20000080600063
:1017600020079800C07228002E64020000000000CC
:101770002E019000620798001D0037006E01900056
:101780006E0090008000E800E0B72000E1407800A3
:10179000E0B7200001717800EE009000E0B7200073
:1017A000614078000004E000060032006E00900006
:1017B000E1B7200060C0780030690200000000003E
:1017C0000300370000C2B3003069020000000000CF
:1017D0000E0890000000E800000F98006E009000D6
:1017E0008000E800F00F2000008060006007980093
:1017F000EE009000F0638000808F5000DFFF3A0021
:10180000F06380008000E900F00F2000008060009D
:10181000F0638800007328002E64020000000000BE
:101820000E089000C6660200000000003073280019
:101830002E64020000000000CA02370070C0B3002E
:101840003069020000000000C6023700F16380002A
:101850002E009000810F5000350032000000EB0098
:10186000000F9800AE019000630798001D0037003C
:101870006E0190006E0090008000E800E0B720004C
:10188000E1407800E0B7200001717800EE009000A0
:10189000E0B72000614078000004E000060032005C
:1018A0006E009000E1B7200060C07800306902004F
:1018B000000000000300370000C2B30030690200DE
:1018C000000000000E0890000000E800000F9800E3
:1018D0006E0090008000E800F00F200000806000A3
:1018E00060079800EE009000F0638000808F500049
:1018F000DFFF3A00F06380008000E900F00F200075
:1019000000806000F0638800007328002E640200ED
:10191000000000000E089000C666020000000000F3
:10192000307328002E640200000000008D02370092
:1019300070C0B30030690200000000008902370067
:101940001069020000000000604F9800EE4890000F
:10195000B0C5B30080CF500082023A001069020087
:1019600000000000604F98006E4890000080FB006F
:10197000700F980010042000FE089000808F500027
:1019800054003200100420007E099000800F5100A6
:1019900009003C0010032000FE099000808F5100D8
:1019A0001200320040032000FE089000808F50009B
:1019B000160032006B023700300420007E099000D0
:1019C000800F51003200320030042000FE099000E8
:1019D000808F5100D800350040042000FE089000A0
:1019E000808F5000110032005E0237001069020043
:1019F00000000000604F9800EE489000E0C7B30080
:101A000080CF500098013200560237001069020062
:101A100000000000604F9800EE489000E0C7B3005F
:101A200080CF5000AB0132004E0237004E009000D4
:101A3000E40F50000500340034780200000000007C
:101A40000000EB0040079800460237000164800068
:101A50002E009000810F5000090032002E009000EF
:101A60008000E900F00F200000806000200798004F
:101A7000C07228002E640200000000003902370006
:101A800070C0B3003069020000000000350237006A
:101A9000F16380002E009000810F50000900320099
:101AA0002E0090008000E800F00F20000080600011
:101AB00020079800507328002E64020000000000E8
:101AC0002802370070C0B300306902000000000037
:101AD000240237000000EB00000F78000064800053
:101AE0000000E90080007800F00F20000080600016
:101AF00060079800840037006E009000E1B7200076
:101B000060C078000004E0007A003A006E009000A7
:101B10008000E900F00F200080806000E0B7200026
:101B2000614078000004E000720032001E0FE800FF
:101B30001E0090009E0F10006E0036001E009000E8
:101B40000000E8001007980001648000F063800046
:101B5000808F50001200320009003700F2638000CD
:101B6000E1B720000040EB0000F17800F063800056
:101B70008000E900F00F200000806000F063880022
:101B8000F163800000648000808F5000F3FF3A0012
:101B9000F2638000E1B720000040EB0000F1780024
:101BA0006E0090008000E900F00F200000806000CF
:101BB000000F9800100037000E089000E1B72000D9
:101BC00060C078000004E00006003A000E089000B3
:101BD0008000E800F00F20000080600050079800AF
:101BE000090037000E0890008000E900F00F200087
:101BF00000806000000F98008E089000F063800065
:101C0000808F5000ECFF3A00907328002E64020091
:101C100000000000A1408000E00220000088B90020
:101C20006102200080804000C092200000804000BF
:101C30002E64020000000000D1408000002020003F
:101C4000008060000000E00004003200710020000D
:101C5000E0562000768F020000000000607228002D
:101C60002E640200000000005E019000020F980048
:101C7000150037008E089000E0B720006140780022
:101C80003069020000000000F26380008E089000BE
:101C9000E0B72000E1407800E0B720000171780053
:101CA000F06380008000E800F00F200000806000FA
:101CB000F06388000E0890008000E800F00F20001C
:101CC00000806000000F98008E0890006E00900069
:101CD000808F5000E7FF3A00F2638000E1B72000F8
:101CE0000040EB0000F17800F363800023079800C8
:101CF000090037006E0090008000E900F00F20001E
:101D00000080600060079800EE009000F0638000A3
:101D1000808F500078FF3A00EE009000F063800062
:101D2000808F50008F013A0070C0B300306902000C
:101D3000000000008B0137000000EB00000F78006E
:101D4000006480000000E90080007800F00F2000AF
:101D50000080600060079800850037006E009000EA
:101D6000E1B7200060C078000004E0007B003A008A
:101D70006E0090008000E900F00F2000808060007D
:101D8000E0B72000614078000004E00073003200FA
:101D90001E0FE8001E0090000000E9009E0F50009A
:101DA0006E003A001E0090000000E9001007980045
:101DB00001648000F0638000808F500012003200C8
:101DC00009003700F2638000E1B720000040EB001B
:101DD00000F17800F06380008000E900F00F20003F
:101DE00000806000F0638800F16380000064800080
:101DF000808F5000F3FF3A00F2638000E1B72000CB
:101E00000040EB0000F178006E0090008000E900D7
:101E1000F00F200000806000000F980010003700D5
:101E20000E089000E1B7200060C078000004E000D8
:101E300006003A000E0890008000E800F00F200035
:101E40000080600050079800090037000E089000DD
:101E50008000E900F00F200000806000000F980073
:101E60008E089000F0638000808F5000ECFF3A00F5
:101E7000907328002E64020000000000A140800042
:101E8000E00220000088B90061022000808040004C
:101E9000C0922000008040002E640200000000007C
:101EA000D140800000202000008060000000E000A1
:101EB0000400320071002000E0562000768F0200FE
:101EC00000000000607228002E6402000000000084
:101ED0005E009000000F9800150037008E089000FB
:101EE000E0B7200061407800306902000000000087
:101EF000F26380008E089000E0B72000E140780097
:101F0000E0B7200001717800F06380008000E800F5
:101F1000F00F200000806000F06388000E08900041
:101F20008000E800F00F200000806000000F9800A3
:101F30008E0890006E009000808F5000E7FF3A00FE
:101F4000F2638000E1B720000040EB0000F1780070
:101F5000F163800021079800090037006E009000AF
:101F60008000E900F00F200000806000600798000A
:101F7000EE009000F0638000808F500077FF3A0001
:101F8000EE009000F0638000808F5000F5003A0072
:101F90001E009000E10F50002F003A0090732800BF
:101FA0002E64020000000000A1408000E00220003A
:101FB0000088B9006102200080804000C0922000AB
:101FC000008040002E64020000000000D14080002C
:101FD00000202000008060000000E00004003200CB
:101FE00071002000E0562000768F02000000000003
:101FF000607228002E640200000000000900370013
:10200000F2638000E1B720000040EB0000F17800AF
:10201000F06380008000E900F00F20000080600085
:10202000F0638800F163800000648000808F5000BE
:10203000F3FF3A00F2638000E1B720000040EB00BC
:1020400000F17800F2638000220798000000EB00A6
:1020500010079800C300370070C0B3003069020059
:1020600000000000BF003700016480002E009000D7
:10207000810F500013003200016480002E00900098
:102080000100500080007800F00F20000080600008
:10209000000F9800007328002E640200000000006A
:1020A0000E089000C6660200000000003073280091
:1020B0002E640200000000000364800023079800E3
:1020C000A800370070C0B3003069020000000000B3
:1020D000A4003700F16380002E009000810F5000B3
:1020E00013003200F16380002E0090000080500049
:1020F00080007800F00F200000806000000F980042
:10210000007328002E640200000000000E089000FA
:10211000C666020000000000F07328002E64020072
:1021200000000000F0638000200798008D00370059
:1021300070C0B30030690200000000008900370061
:1021400010002000600F98000000EB0010079800BE
:10215000F2638000E1B720000040EB0000F178005E
:10216000F06380008000E800F00F20000080600035
:10217000F0638800F1638000210798001074280044
:102180005A64020000000000760037004E00900004
:102190000000E800400798004E009000F40F500047
:1021A00070003A00026A0200000000006D00370073
:1021B000F06380008000E800F00F20008080600065
:1021C00000648000808F5000630032006E489000F1
:1021D000FF4F500060003600EE489000E0C7B300AB
:1021E00080CF50005C003E00F16380002E00900024
:1021F000808F500013003A006E4890003069020052
:1022000000000000F2638000EE489000E0B720007C
:1022100001717800F06380008000E800F00F20007A
:1022200000806000F0638800F2638000E1B7200066
:102230000040EB0000F17800F26380002207980074
:1022400048003700F16380002E00900000805000AD
:1022500080007800F00F200000806000000F9800E0
:10226000007328002E640200000000000E08900099
:10227000C666020000000000F07328002E64020011
:1022800000000000F063800060079800190037002C
:102290006E0090000001E800EE009000E0B7200022
:1022A000E1407800E0B7200001717800EE00900076
:1022B000E0B72000614078000004E0000800320030
:1022C0006E009000E1B7200060C078003069020025
:1022D00000000000207428002E64020000000000AE
:1022E0006E0090008000E900F00F20000080600088
:1022F000600798006E0190002E0090008000E900B9
:10230000F00F200000806000800F5100E0FF3A00D5
:102310006E48900030690200000000002E0190001D
:10232000EE489000E0B72000017178002E00900088
:102330008000E800F00F2000008060002007980077
:10234000F06380008000E800F00F20000080600053
:10235000F06388000300370070C0B30030690200EA
:10236000000000006E0890000000E000E1FB320079
:10237000F0638000400F980000648000300F9800E8
:102380000000EB00600F98000000EB00500F980079
:102390000000EB0010648800E60437000164800050
:1023A000E0B7200061407800604F98006E489000D0
:1023B0000080FB006101B9002217980033179800D4
:1023C000E0072000010020002E119000BE119000B7
:1023D000800F5100818F5900AA043E002E109000FA
:1023E000BE10900000600100A8043700A50437006B
:1023F000A4043700A3043700A2043700A104370067
:10240000A00437009F0437009E0437009D04370066
:102410009E0437009B0437009A0437009B04370062
:102420009804370097043700960437009504370066
:102430009404370093043700920437009104370066
:10244000900437008F0437008E0437008D04370066
:102450008C0437008B0437008A0437008904370066
:102460008804370087043700880437006504370084
:10247000AE023700270137002C013700D1013700A9
:10248000BF0137007F043700880237007D04370022
:102490007C0437007D0437007C04370011043700CA
:1024A0002A043700F50337002203370021033700E1
:1024B000200337001F0337001E0337001D033700BA
:1024C0001C0337001B0337001A03370019033700BA
:1024D0006C0437006B043700D6013700C5003700A5
:1024E000680437003F0037003A0137002C013700FD
:1024F00064043700640037009E0137006104370030
:10250000600437005F0437005E0437005D04370065
:102510005C0437005B04370065003700590437005E
:1025200058043700570437008B0037005504370034
:1025300054043700B4013700520437005104370007
:1025400050043700390137004E0437004D0437007E
:102550004C043700D3023700D5033700E3023700BD
:1025600009043700EC03370046043700FF0037004A
:10257000270037003A003700700137004104370068
:10258000290037002B0037004004370018003700BF
:102590003C0437003B043700510037001A00370075
:1025A000380437001C003700590037003504370065
:1025B0005A03370033043700320437003104370040
:1025C000170037004B0137002E0437002D04370069
:1025D0002C043700BC023700A1003700CC023700C2
:1025E000BF003700169002000000000027043700EB
:1025F0007A070700A04080000000E00023043200BA
:10260000F607070021043700280607001F043700DB
:102610002D0907001D043700070907001B043700B8
:102620007B080700190437008871020000000000D1
:1026300016043700A04080000000E00005003A00CA
:10264000D1012000505A200000900200000000003C
:102650000E043700F26F0200000000000B04370088
:1026600081AE2000114078000000A1000010A10000
:102670008048780061012000A057200000900200EF
:10268000000000000104370081AE200011407800F6
:102690000000A0000010A100804878005101200037
:1026A000005920000090020000000000F7033700EE
:1026B00081AE2000114078000030A00080487800F2
:1026C000C1012000E07E2000768F020000000000A3
:1026D000107428005A64020000000000EB03370069
:1026E00081AE2000114078000030A10080487800C1
:1026F000B1012000307D2000768F02000000000034
:10270000107428005A64020000000000DF03370044
:10271000A04080000000E00005003A00D101200048
:10272000505A20000090020000000000D70337003C
:10273000CB62A900C962A90051012000205C2000E1
:10274000768F020000000000107428005A64020016
:1027500000000000CD033700A04080000000E00032
:1027600005003A00D1012000505A200000900200DC
:1027700000000000C503370080AE20001040780044
:10278000704060000004E00004003A0021022000D4
:10279000F0E920000090020000000000C962A800DB
:1027A000CB62A90041012000705D2000768F0200FD
:1027B00000000000107428005A64020000000000AD
:1027C00021E3A800B0C0B3009C8D0200000000000F
:1027D00080007800F0042000808F500003003E004D
:1027E000707428005A6402000000000021E3A90070
:1027F000A6033700006480008000E800F00F20008E
:10280000008060000064880099050700D30307007A
:10281000600798006E00900028670200000000002A
:10282000A07628002E640200000000006E009000D8
:10283000C666020000000000A07628002E64020098
:10284000000000006E0090008E6402000000000096
:10285000107428005A640200000000008B03370047
:10286000006480008000E800F00F2000008060001D
:10287000006488007E050700B80307006007980021
:102880006E0090000080FB002E8F02000000000010
:10289000600798006E0090002867020000000000AA
:1028A000A07628002E640200000000006E00900058
:1028B000C666020000000000A07628002E64020018
:1028C000000000006E0090008E6402000000000016
:1028D000107428005A640200000000006B033700E7
:1028E000A04080000000E00005003A0011C0B300E5
:1028F00010C0B3000A880200000000006303370024
:10290000A1012000B05E2000009002000000000045
:102910005E0337005100200050602000009002004C
:10292000000000000000FE0058033700A6900200DF
:10293000000000000000E00054033200A10020006D
:10294000A06020000090020000000000400620006F
:10295000CC8E020000000000528D0200000000003A
:1029600081BF2A000140010048033700000507002D
:102970000000E800000F9800020037000C7302000E
:10298000000000000E0890000000E900000F980011
:102990000E0890000000E000F8FF3A003B0337000B
:1029A000F30407000000E800000F98000200370061
:1029B000EA720200000000000E0890000000E9002A
:1029C000000F98000E0890000000E000F8FF3A00A9
:1029D0002E033700E60407000000E800000F98000F
:1029E0000B0037006101200040612000768F02005B
:1029F000000000002E7302000000000018640200B6
:102A000000000000107428005A640200000000005A
:102A10000E0890000000E900000F98000E089000DA
:102A20000000E000EFFF3A0018033700A0408000EC
:102A30000000E00005003A00D1012000505A2000BB
:102A4000009002000000000010033700C002A9003F
:102A5000C202A80021E3A80020002000CC8E0200C2
:102A600000000000A0C0B3009C8D02000000000028
:102A700080007800001B2000808F50000F0036007F
:102A800090C0B3009C8D0200000000008000780020
:102A9000702B2000808F50000800360011012000AC
:102AA000A0622000768F0200000000001074280051
:102AB0005A640200000000000C003700C002A900A8
:102AC000C202A900E07628005A640200000000005B
:102AD00021012000B0632000768F0200000000007A
:102AE000107428005A6402000000000021E3A900CD
:102AF000E6023700A04080000000E00005003A0038
:102B0000D1012000505A2000009002000000000077
:102B1000DE023700C002A900C202A9002101200084
:102B2000B0632000768F02000000000010742800BF
:102B30005A64020000000000D4023700F1002000B7
:102B4000C0362000768F020000000000B68D020023
:102B50000000000011002000B0372000768F020036
:102B600000000000107428005A64020000000000F9
:102B7000C6023700C88D020000000000C302370003
:102B80007B040700000F9800610020009065200082
:102B9000768F0200000000000E08900068660200B8
:102BA0000000000021002000F065200000900200DD
:102BB000000000000E089000F88E020000000000E7
:102BC000B20237006A040700000F9800610020007D
:102BD00090652000768F0200000000000E08900033
:102BE00068660200000000002100200030EE200096
:102BF00000900200000000000E089000CC8E020041
:102C000000000000A1023700A04080000000E000AA
:102C100005003A00D1012000505A20000090020027
:102C200000000000990237006273020000000000FB
:102C30009602370010002000106488001000200069
:102C4000600798000F003700016480006E0090005C
:102C500080804000F00F200080806000E0B72000FE
:102C6000E1407800E0C3B30080CF500002003A009A
:102C70000000EB00106488006E0090000000E80087
:102C800060079800016480006E0090008080400022
:102C9000F00F200080806000E0B7200061407800E5
:102CA0000004E000E8FF3A00EE009000200220005F
:102CB000808F500002003400100020001064880053
:102CC000106480000000E00070023A0000648000A0
:102CD0008000E800F00F20000080600000648800A1
:102CE0009E0207006007980001648000F00F20003A
:102CF00080806000E0B72000E1407800D0C3B300DE
:102D000080CF50003C003A006E0090000000E000D0
:102D1000360034006E009000E50F500033003C0098
:102D2000006480008000E800F00F20000080600058
:102D3000006488006E0090000000E90060079800C1
:102D40000000EB00000F98000A0037006E009000B2
:102D50008E0890004500DD000101400041C82000C0
:102D60000040EB0000F178000E0890000000E80041
:102D7000000F98000E089000FF0F5000F3FF340082
:102D80000000EB00000F9800110037006E0190006A
:102D90008E09900001648000E0B720006142780055
:102DA0004510DD008300400040C82000847078009A
:102DB0000E0890000000E800000F980000648000FA
:102DC0008000E800F00F20000080600000648800B0
:102DD00001648000E0B72000E1407800E0C3B30068
:102DE00080CF5000E9FF3A00280237001000200091
:102DF00010648800250237006E0090000000E0009B
:102E00001B003A000000EB00000F98001400370090
:102E10000E0890000040E800C666020000000000B6
:102E2000E07828002E640200000000000E089000E8
:102E30004500DD008000780040C820000080400090
:102E40002E64020000000000607228005A64020034
:102E5000000000000E0890000000E800000F98003D
:102E60000E089000E40F5000E9FF3400070237001D
:102E70006E0090000000E000090034006E00900039
:102E8000E50F500006003C00107428005A64020050
:102E900000000000EE00900021698800FB0137006F
:102EA0001000200010648800F801370000648000E2
:102EB0008000E800F00F20000080600000648800BF
:102EC00026020700200F9800E90307000164800034
:102ED000F00F200080806000E0B72000E140780023
:102EE00090C2B30080CF50000D003A00A140800096
:102EF000E00220000088B900FC004000C0922000E1
:102F000000804000900078002E0890000100010031
:102F1000107428005A64020000000000DB01370032
:102F20001000200010648800D80137001000200035
:102F30001064880010002000600798000F00370020
:102F4000016480006E00900080804000F00F20003F
:102F500080806000E0B72000E140780020C2B3002C
:102F600080CF500002003A000000EB00106488009F
:102F70006E0090000000E800600798000164800087
:102F80006E00900080804000F00F20008080600084
:102F9000E0B72000614078000004E000E8FF3A005C
:102FA000106480000000E000B8013A0071002000C9
:102FB00010662000768F02000000000020C2B300DF
:102FC000306902000000000020003700016480002A
:102FD000F00F200000806000006488000164800021
:102FE000E0B7200061407800306902000000000076
:102FF00001648000E0B72000614078000000FB0021
:10300000200F980080AE20001040780068406000DB
:103010000004E000040032002E0890002E8F020011
:1030200000000000200F9800A1408000E002200076
:103030000088B900E8004000C092200000804000F5
:10304000900078002E0890000100010000648000CC
:103050000000E8000064880001648000F00F200098
:1030600080806000E0B72000E140780020C2B3001B
:1030700080CF5000D5FF3A0000648000F10F20009F
:10308000010060000064880020C2B30030690200C3
:1030900000000000107428005A64020000000000C4
:1030A0007A013700A1408000E00220000088B900CA
:1030B00080007800C092200000804000100078005E
:1030C0000000010071013700A1408000E0022000F3
:1030D0000088B9008080E800C09220000080400095
:1030E000100078000000010068013700A140800056
:1030F000E00220000088B900E4004000C0922000F7
:103100000080400010007800000001005F013700DF
:10311000A1408000E00220000088B900E6004000E5
:10312000C0922000008040001000780000000100E4
:10313000560137007100200010662000768F0200D3
:103140000000000085010700200F98000064800047
:103150000000E9000064880001648000F00F200096
:103160000080600000648800010307000000E800A0
:10317000000F980020030700300798003E009000E1
:103180000000E0005B0032003E00900080407800CC
:1031900070AD2000014878003E009000E80F50001C
:1031A0000500340081AE2000114078000050A000DE
:1031B000804878004F00370081AE20001140780031
:1031C0000050A100804878004A0037002E08900087
:1031D000268E02000000000080AE20001040780023
:1031E0000042B2000004E00004003A0070AD20008C
:1031F00010407800E84F500009003A0080AE2000EF
:10320000104078000042B2000004E0000B003200E1
:1032100070AD200010407800F04F500007003200E1
:10322000B0C3B300306902000000000070AD2000A0
:1032300010407800C66602000000000080AE20004A
:1032400010407800684060000004E0000400320094
:103250002E0890002E8F020000000000200F980022
:10326000A1408000E00220000088B900E800400092
:10327000C092200000804000900078002E0890004E
:1032800001000100100F980000C2B3003069020075
:103290000000000080AE2000104078000044B20022
:1032A0000004E0001300320061002000806620006E
:1032B000768F02000000000080AE200010407800F1
:1032C000684060000004E000040032001E08900026
:1032D0002E8F020000000000100F98001E089000C2
:1032E000268E02000000000000C2B3003069020018
:1032F000000000000E0890000000E900000F980098
:103300000E0890000000E000B0FF3A0010742800A2
:103310005A64020000000000DC0037006100200059
:1033200080662000768F02000000000090020700F7
:103330000000E800000F9800AF0207003007980077
:103340003E0090000000E000420032003E0090008D
:103350008040780070AD2000014878003E00900069
:10336000E80F50000500340081AE200011407800C5
:103370000050A000804878003600370081AE200061
:10338000114078000050A1008048780031003700DB
:10339000A1408000E00220000088B900EA0040005F
:1033A000C092200000804000100078000000010062
:1033B000100F980080AE2000104078006840600038
:1033C0000004E000040032001E0890002E8F02006E
:1033D00000000000100F98001E089000268E0200CA
:1033E0000000000080AE2000104078000042B200D3
:1033F0000004E00004003A0070AD200010407800A6
:10340000E84F500009003A0080AE200010407800DC
:103410000042B2000004E0000B00320070AD20005A
:1034200010407800F04F500007003200B0C3B300E6
:10343000306902000000000070AD200010407800EC
:10344000C66602000000000000C2B300306902003E
:10345000000000000E0890000000E900000F980036
:103460000E0890000000E000C9FF3A001074280028
:103470005A64020000000000840037008100200030
:10348000E06620000090020000000000A1408000E3
:10349000E00220000088B900EC004000C09220004B
:1034A0000080400010007800000001007700370025
:1034B00081002000606720000090020000000000F2
:1034C000A1408000E00220000088B900EE0040002A
:1034D000C092200000804000100078000000010031
:1034E0006A003700E1002000E06720000090020041
:1034F00000000000A1408000E00220000088B90028
:10350000F0004000C09220000080400010007800D1
:10351000000001005D003700E1002000C0682000CD
:103520000090020000000000A1408000E0022000A6
:103530000088B900F2004000C092200000804000E6
:10354000100078000000010050003700C10020008A
:10355000D0642000768F020000000000A1408000AF
:10356000E00220000088B900F4004000C092200072
:103570000080400010007800000001001864020084
:103580000000000041003700F9010700000F98001B
:10359000D1002000A06A2000768F02000000000009
:1035A0000E089000268E0200000000000E08900019
:1035B0000000E800000F980008003700A1408000DC
:1035C000E00220000088B900F6004000C092200010
:1035D0000080400010007800000001000E089000FC
:1035E0000000E900000F98000E0890000000E000C5
:1035F000F2FF3A00107428005A6402000000000034
:1036000022003700DA0107000000E800000F9800F0
:10361000A1002000706B2000768F020000000000E7
:103620000D003700A1408000E00220000088B900B2
:10363000F8004000C0922000008040001000780098
:1036400000000100186402000000000000C2B30086
:1036500030690200000000000E0890000000E90040
:10366000000F98000E0890000000E000EDFF3A0007
:1036700001012000A069200000900200000000006D
:1036800002003700100020001064880000648000F1
:103690008000E800F00F20000080600000648800D7
:1036A000106480000000E0001C0032005101200086
:1036B000106C2000768F020000000000BE08900011
:1036C00000648000808F500007003100006480009B
:1036D000804078003E08900000C05000C66602009E
:1036E0000000000006003700006480008040780081
:1036F0003E08900000C05000C666020000000000B6
:103700000000EB001064880010002000500F9800AB
:10371000107428005A640200000000000164800058
:10372000F0638000808F500002003A0010002000FB
:10373000500F98005E0890000000E00017FB320078
:103740004E089000006488004E089000F0638800E6
:103750000000EB00600F9800D0F637000600FA007A
:103760000000EB00100798000000EB00000F78004D
:10377000016480001E00900080804000F00F200057
:1037800080806000E0B72000E140780000C3B30013
:1037900080CF50003E003400016480001E00900085
:1037A00080804000F00F200080806000E0B72000A3
:1037B000E140780090C3B30080CF500034003C005B
:1037C000016480001E00900080804000F00F200007
:1037D00080806000E0B72000614078008000FB003E
:1037E00000FD2F00008F40001E0090000000E80048
:1037F00010079800110037001E0078006A00B90019
:10380000000F7800016480001E009000808040005E
:10381000F00F200080806000E0B720006140780059
:103820000000FB009E00400000FD2F00008F4000C4
:103830001E0090000000E80010079800016480005E
:103840001E00900080804000F00F2000808060000B
:10385000E0B72000E1407800F0C2B30080CF500014
:1038600036013400016480001E009000808040001A
:10387000F00F200080806000E0B72000E140780079
:1038800090C3B30080CF5000DBFF34002B01370022
:10389000016480001E00900080804000F00F200036
:1038A00080806000E0B72000E140780000C3B300F2
:1038B00080CF50001C013A001E0090000000E8007C
:1038C00010079800016480001E0090008080400076
:1038D000F00F200080806000E0B72000E140780019
:1038E00020C6B30080CF50000A003200016480007F
:1038F0001E00900080804000F00F2000808060005B
:10390000E0B72000E140780020C4B30080CF500031
:103910002A003A001E0090000000E80010079800FE
:10392000110037001E00780000004000000F7800F2
:10393000016480001E00900080804000F00F200095
:1039400080806000E0B72000614078000000FB004C
:103950009E00400000FD2F00008F40001E009000E0
:103960000000E80010079800016480001E0090002D
:1039700080804000F00F200080806000E0B72000D1
:10398000E140780010C3B30080CF5000E5FF320063
:10399000016480001E00900080804000F00F200035
:1039A00080806000E0B72000E140780000C3B300F1
:1039B00080CF5000DBFF3200E00037000164800060
:1039C0001E00900080804000F00F2000808060008A
:1039D000E0B72000E140780080C7B30080CF5000FE
:1039E0000A003200016480001E00900080804000C8
:1039F000F00F200080806000E0B72000E1407800F8
:103A000080C5B30080CF500082003A001E009000B5
:103A10000000E80010079800410037001E00780001
:103A20004400DD00000F7800016480001E0090005B
:103A300080804000F00F200080806000E0B7200010
:103A4000E1407800F0C2B30080CF5000160034008F
:103A5000016480001E00900080804000F00F200074
:103A600080806000E0B72000E140780090C3B300A0
:103A700080CF50000C003C00016480001E009000CC
:103A800080804000F00F200080806000E0B72000C0
:103A9000614078000000FB009E00400000FD2F0008
:103AA000008F40001B003700016480001E00900062
:103AB00080804000F00F20000081600001648000E1
:103AC0001E00900080804000F00F20008080600089
:103AD000E0B72000E140780000C2B30080C0700071
:103AE000E0B7200001717800016480001E009000A2
:103AF00080804000F00F200080806000E0B7200050
:103B0000614078000000FB009E00400090FA2F000A
:103B1000008F40001E0090000000E8001007980091
:103B2000016480001E00900080804000F00F2000A3
:103B300080806000E0B72000E1407800F0C2B30070
:103B400080CF50000A003400016480001E00900005
:103B500080804000F00F200080806000E0B72000EF
:103B6000E140780090C3B30080CF5000ABFF340039
:103B7000016480001E00900080804000F00F200053
:103B800080806000E0B72000E140780000C4B3000E
:103B900080CF50000A003400016480001E009000B5
:103BA00080804000F00F200080806000E0B720009F
:103BB000E140780060C4B30080CF500097FF34002C
:103BC000016480001E00900080804000F00F200003
:103BD00080806000E0B72000E140780000C6B300BC
:103BE00080CF500055003400016480001E0090001A
:103BF00080804000F00F200080806000E0B720004F
:103C0000E140780060C6B30080CF500083FF3400ED
:103C10004A003700016480001E0090008080400050
:103C2000F00F200080806000E0B72000E1407800C5
:103C3000F0C2B30080CF5000400034000164800027
:103C40001E00900080804000F00F20008080600007
:103C5000E0B72000E140780090C3B30080CF50006F
:103C600036003C00016480001E009000808040000F
:103C7000F00F200080806000E0B7200061407800F5
:103C80008000FB0000FD2F00008F40001100370076
:103C90001E0078006A00B900000F780001648000FF
:103CA0001E00900080804000F00F200080806000A7
:103CB000E0B72000614078000000FB009E0040005B
:103CC00000FD2F00008F40001E0090000000E80063
:103CD00010079800016480001E0090008080400062
:103CE000F00F200080806000E0B72000E140780005
:103CF000F0C2B30080CF5000100034000164800097
:103D00001E00900080804000F00F20008080600046
:103D1000E0B72000E140780090C3B30080CF5000AE
:103D2000DBFF34000500370010002000106488001D
:103D30000000EB00200798000A00370001648000B3
:103D40001E00900000804000006488000164800034
:103D5000F00F200000806000006488001E007800E2
:103D6000200798002E0090000080FA000000060056
:103D70000400FA00006480008000E800F00F2000DA
:103D800080806000E0B72000E1407800A0C3B3006D
:103D900080CF500013003A00006480000080E800EB
:103DA0000064880001648000F00F20000080600043
:103DB0000064880069FE0700000F7800006480003E
:103DC0000000E9000064880001648000F00F20001A
:103DD00000806000006488001E00780010079800D2
:103DE0000200370010002000100798001E0090000D
:103DF0000080FA00000006000400FA000064800061
:103E00008000E800F00F200080806000E0B7200014
:103E1000E1407800B0C3B30080CF50000F003A00FB
:103E2000006480008080E800F00F200000806000C7
:103E30000064880049FE0700000F780000648000DD
:103E40008000E900F00F200000806000006488001E
:103E50001E00780010079800020037000000EB00F9
:103E6000100798001E0090000080FA000000060075
:103E70000000FA0005003700006480008000E800C0
:103E8000F00F200000806000006488000164800062
:103E9000E0B72000E140780000C2B30080CF5000BE
:103EA000F5FF32000080FA00000006000400FA006E
:103EB0000000EB00000F7800006480008000E80044
:103EC000F00F20000080600000648800E8FF070019
:103ED00022FE0700000F78001E00E0004D003A00AF
:103EE0000000EB0010079800130037001E00900040
:103EF0000040E800C66602000000000020792800AB
:103F00002E640200000000009E009000E0022000ED
:103F10000088B9006102200080804000C09220002B
:103F2000008040005A640200000000001E00900063
:103F30000000E800100798001E009000E70F5000F6
:103F4000EAFF340071012000606D20000090020043
:103F5000000000000000EB00106488001300200047
:103F600082002000110020001000200055000700F2
:103F7000000FE900E0FF2F009E0F10000300320049
:103F80000080EB009E0F100005003A00E1002000C9
:103F9000D06E2000009002000000000042003700B8
:103FA000A1408000E00220000088B900010220004A
:103FB00080804000C0922000008040001000780007
:103FC00000000100528D0200000000001E00780079
:103FD000A0408800A1408000E00220000088B900D5
:103FE000FE004000C09220000080400010007800D9
:103FF000000001001E00E00001003200C222A80003
:1040000051002000505720000090020000000000E6
:10401000250037001E0FE900700020009E0F1000E1
:104020001D003C00A1408000E00220000088B90093
:104030000102200080804000C092200000804000EB
:104040001000780000000100528D02000000000006
:104050001E007800A0408800A1408000E0022000FF
:104060000088B900FE004000C0922000008040009F
:1040700010007800000001001E00E0000100320086
:10408000C222A800510020005057200000900200DA
:10409000000000000400370051012000C072200021
:1040A0000090020000000000F06380008000E90042
:1040B000F00F200000806000006488000080FA009B
:1040C000000006001E00FA00100F9800210F980053
:1040D000320F9800430F98000000EB004007980053
:1040E0000000EB00200798000000EB00100798008C
:1040F0000000EB00000F7800507928002E640200C9
:10410000000000001E0890000000E00004003D00D8
:10411000907928002E6402000000000003003700A0
:104120001E089000C666020000000000B07928005A
:104130002E640200000000006700370010690200D2
:1041400000000000204F98002E4890000000FB0067
:10415000600F98006E089000ED0F500029003200AB
:10416000EE089000ED8F500007003C006E099000B3
:10417000E80F51000D0032006E089000EA0F500069
:104180002000320035003700D0022000EE089000F9
:10419000808F50001E003200800720006E099000C2
:1041A000800F5100270032002C0037004E00900095
:1041B0000000E000070032004E0090000000E9001F
:1041C00040079800807228002E6402000000000062
:1041D000410037001E00E000060032000000EB0046
:1041E000000F7800807228002E640200000000009A
:1041F0003900370070C0B3003069020000000000D1
:1042000035003700100020002007980032003700EA
:104210004E0090000000E00006003A00D0C2B3005B
:10422000306902000000000010002000000F78003C
:104230002900370070C0B3003069020000000000A0
:10424000250037004E0890000000E0000300320017
:104250000080EB00500F98005D003700AE489000E2
:10426000F0C2B30080CF500018003400AE48900078
:1042700090C3B30080CF500014003C004E0090006B
:10428000E30F50000600340070C0B3003069020034
:104290000000000040002000400798000E0037009A
:1042A0002E4890003069020000000000CE0090000F
:1042B0006B0047002E499000827078004E009000FD
:1042C0000000E800400798000300370070C0B3000A
:1042D00030690200000000002E0090000000E000A5
:1042E00096FF3200107428005A640200000000009B
:1042F0004E0090000000E00003003A001E0890000D
:10430000500F9800320037000000EB0010079800B3
:104310004E0090000000E90040079800CE00900099
:1043200031079800110037001E0090006A00B900A4
:1043300010079800BE0090004E0090008080500052
:104340006B004700614078008000FB001E00900079
:104350008080400000FD2F00008040001007980082
:104360004E0090000000E900400798004E009000C9
:104370000000E000ECFF3D009E0090002E08900041
:10438000808F50000D0035009E0090003E08900088
:10439000808F500009003C001E00E0000400320045
:1043A0001E0090000000EA00500F9800080037003F
:1043B0001E019000520F980005003700B101200047
:1043C00080EC2000009002000000000042FF370057
:1043D0005E0890000080FA00000006000400FA0069
:1043E000E07928002E64020000000000E0C2B30063
:1043F0003069020000000000A08120001040780019
:104400003069020000000000B1408000F04420004C
:10441000808F500003003A00C07A28002E6402000A
:1044200000000000107428005A6402000000000020
:10443000307C28002E64020000000000D100200023
:10444000A0802000768F020000000000A1BF2A009B
:104450000000EB00FE67020000000000000F780083
:104460001E0078004800DE00C66602000000000062
:10447000E0C2B30030690200000000001E007800B6
:10448000C666020000000000107428005A64020092
:10449000000000006100200030762000768F0200CE
:1044A00000000000B04080007867020000000000BB
:1044B0007100200010EC2000768F02000000000048
:1044C000C04080007867020000000000807D280066
:1044D0002E64020000000000B1408000F044200083
:1044E000808F500004003A00507E28002E640200A5
:1044F0000000000003003700807E28002E640200C8
:1045000000000000C0408000100798002004230035
:104510009E009000808F500016003200200423007F
:104520009E009000808F500005003E003000230068
:104530009E009000808F50000A0032001900370062
:10454000300423009E009000808F50000D00320048
:10455000600423009E009000808F50000D00320008
:1045600010003700B07E28002E640200000000001A
:104570000F003700E07E28002E64020000000000DB
:104580000B003700107F28002E640200000000009E
:1045900007003700407F28002E6402000000000062
:1045A00003003700707F28002E6402000000000026
:1045B000B07F28005A64020000000000E1012000E2
:1045C0009076200000900200000000000000EB0048
:1045D000000F78000080FA00000006000000FA00DA
:1045E0005100200050922000768F02000000000051
:1045F000C1BF2A000000EB00FE67020000000000BF
:10460000786702000000000061002000A0922000F6
:10461000768F020000000000E1BF2A000000EB00DE
:10462000FE67020000000000786702000000000042
:10463000107428005A64020000000000C10020002D
:104640007078200000900200000000007000070059
:10465000C2C2BF00614060000004E00005003200FB
:1046600011012000A0622000768F020000000000EF
:104670000400370021012000B0632000768F020083
:1046800000000000C0C2B30030690200000000005A
:1046900000C2B3003069020000000000CBC2BF00BE
:1046A000684060000004E000050032004101200085
:1046B000705D2000768F02000000000004003700CB
:1046C00051012000205C2000768F020000000000D5
:1046D000C0C2B300306902000000000000C2B30095
:1046E000306902000000000080AE20001040780019
:1046F000704060000004E00005003200210220004C
:104700003079200000900200000000000400370013
:10471000E1012000507B200000900200000000001A
:1047200080AE200010407800684060000004E00087
:1047300005003A00B1012000307D2000768F020094
:104740000000000004003700C1012000E07E2000CE
:10475000768F020000000000C0C2B3003069020082
:104760000000000000C2B300306902000000000039
:10477000B1012000B01A2100768F02000000000075
:1047800070AD200010407800C666020000000000F6
:10479000107428005A6402000000000080AE20005F
:1047A0001040780063406000E14F500005003A007F
:1047B000510120000059200000900200000000007C
:1047C0000400370061012000A05720000090020083
:1047D00000000000A1408000E00220000088B90035
:1047E0004102200080804000C092200000804000F4
:1047F0001000780000000100C10020007078200047
:1048000000900200000000000080FA000000060096
:104810000000FA00A10020004007210000900200E3
:104820000000000061042000C00C21000090020084
:1048300000000000A1012000E0072100768F0200A7
:1048400000000000A1408000E00220000088B900C4
:104850002102200080804000C092200000804000A3
:104860001000780000000100A10020008009210054
:10487000768F02000000000000402000500007007A
:10488000001020004E000700002020004C00070010
:10489000000420004A00070000082000480007002C
:1048A000107428005A64020000000000410020003B
:1048B00020112100768F02000000000021E3A800F3
:1048C000A0C0B3009C8D020000000000BA67020087
:1048D0000000000011002000B0372000768F020099
:1048E0000000000090C0B30030690200000000002A
:1048F00090C0B3009C8D020000000000BA67020067
:104900000000000011002000B0372000768F020068
:104910000000000090C0B3003069020000000000F9
:10492000C0C0B3009C8D020000000000BA67020006
:104930000000000011002000B0372000768F020038
:104940000000000090C0B3003069020000000000C9
:10495000B0C0B3009C8D020000000000BA670200E6
:104960000000000011002000B0372000768F020008
:104970000000000090C0B300306902000000000099
:1049800021E3A900004020001C00070000102000C7
:104990001A00070000202000180007000004200073
:1049A00016000700000820001400070010742800FB
:1049B0005A640200000000000080FA0000000600B7
:1049C0000200FA00000F7800401680001E00600010
:1049D0000000E00004003200D07F28002E640200B6
:1049E0000000000003003700008028002E64020051
:1049F000000000000080FA00000006000200FA003B
:104A0000000F7800501680001E0060000000E000DB
:104A100004003200308028002E64020000000000F4
:104A200003003700608028002E64020000000000B0
:104A30000080FA00000006000200FA000064800016
:104A40008000E800F00F2000008060000064880013
:104A500007FD070041FB0700000F78001E00E00083
:104A600006003400400020009E0F100003003C00B0
:104A70001E00E900904088000D0037000000EB00A8
:104A80001064880021022000708120000090020044
:104A9000000000008001EB00420020001100200017
:104AA0001000200087FD07000000E900904088000A
:104AB00021012000908320000090020000000000EF
:104AC0000080FA00000006000200FA000040EB003F
:104AD000004F7800006480008000E800F00F2000A4
:104AE0000080600000648800E1FC07001BFB0700F9
:104AF000104798001E4090000004E00009003200BA
:104B00001E409000EA4F500006003E001E409000FC
:104B10000040E900804078000081200001487800D2
:104B20000F0037000000EB0010648800D10820005F
:104B30006087200000900200000000008001EB0070
:104B4000A200200011002000900020005DFD070061
:104B50000040E90080407800008120000148780092
:104B60000081200010407800E94F500010003A000A
:104B7000BFFC0700F9FA0700004F78001E04E000B0
:104B80000B003A000000EB001064880090802800C1
:104B90005A640200000000008001EB00F2FF2700D1
:104BA0008000EB002002200046FD0700004F780047
:104BB0004101200030902000009002000000000021
:104BC00011012000A0192100009002000000000047
:104BD0000081200010407800E94F500003003A00A7
:104BE0001E4078004E6902000000000024680200A8
:104BF00000000000000037005268020000000000C2
:104C00000004E000FCFF3200106902000000000018
:104C10008040780000C2B30080CF50000100320015
:104C2000F5FF37000080FA000000060057524900E7
:104C300054452000424954003A2020002A6E650065
:104C400078742000636C6F00636B2000285E29007D
:104C5000207769006C6C2000757365002074680013
:104C60006973200076616C0075654E006F206400EA
:104C70006576690063652C00207472007920280035
:104C8000414C4100524D2900205345004152430000
:104C900048206D00616372006F20660069727300C6
:104CA0007441440044524500535320004D41430099
:104CB000524F200020302E004D616300726F2000A3
:104CC0006D656E00754D610063726F0020202000DD
:104CD0002020310057495200452061006464720071
:104CE000657373000D0A200020202A003157490007
:104CF00052452000524F4D0020434F004D4D410082
:104D00004E4420004D414300524F73003A0D0A00BB
:104D1000203531002E52450041442000524F4D00B5
:104D2000202830007833330029202A00666F720073
:104D3000207369006E676C00652064006576690009
:104D400063652000627573000D0A200038352E005F
:104D50004D41540043482000524F4D002028300060
:104D60007835350029202A00666F6C006C6F77005B
:104D70006564200062792000363462006974200086
:104D80006164640072657300730D0A0020323000A4
:104D9000342E53004B49500020524F004D20280024
:104DA00030784300432920002A666F006C6C6F0046
:104DB000776564002062790020636F006D6D61008B
:104DC0006E640D000A20320033362E00414C410043
:104DD000524D2000534541005243480020283000E6
:104DE00078454300290D0A0020323400302E53004C
:104DF0004541520043482000524F4D0020283000CA
:104E00007846300029414C0041524D002053450066
:104E10004152430048202800307845004329530080
:104E20004541520043482000283078004630290090
:104E30004465760069636500204944007320610081
:104E40007265200061766100696C6100626C6500CA
:104E500020627900204D410043524F002C20730006
:104E600065652000283029002E524500414420006D
:104E7000524F4D002028300078333300293A20006B
:104E80004D41540043482000524F4D00202830002F
:104E90007835350029534B0049502000524F4D00C2
:104EA000202830007843430029556E006B6E6F0058
:104EB000776E20006D616300726F2C0020747200A9
:104EC00079203F00206F72002028300029206600E2
:104ED0006F72200068656C007042550053205200CC
:104EE000455345005420570061726E00696E67009B
:104EF0003A202A0053686F00727420006F722000FD
:104F00006E6F200070756C006C2D750070202A008B
:104F10004E6F20006465760069636500206465005B
:104F20007465630074656400204453003138530095
:104F300032302000486967006820500072657300B5
:104F40002044690067205400686572006D44530076
:104F5000313842003230200050726F00672052001A
:104F600065732000446967002054680065726D0015
:104F70004453310038323200204563006F6E200008
:104F8000446967002054680065726D004453320024
:104F900034303400204563006F6E7200616D200074
:104FA00074696D00652043006869700044533200E5
:104FB0003433310020314B002045450050524F0022
:104FC0004D556E006B6E6F00776E20006465760045
:104FD0006963650050574D00206469007361620089
:104FE0006C656400314B48007A2D34002C30300061
:104FF000304B48007A205000574D460072657100D2
:1050000075656E0063792000696E20004B487A0058
:105010002050720065736300616C65003A50520065
:10502000323A44007574790020637900636C65003E
:1050300020696E002025200050574D00206163003C
:105040007469760065455200524F52003A20500074
:10505000574D200061637400697665002C2067005D
:1050600020746F0020646900736162006C65410008
:105070005558200046726500717565006E637900B1
:105080003A20410055582000494E500055542F00F9
:1050900048492D005A4155005820480049474800CA
:1050A00041555800204C4F0057564F004C544D006E
:1050B0004554450052204D004F444500564F4C008A
:1050C0005441470045205000524F4200453A2000CD
:1050D00056457200726F720028292000406C6900EA
:1050E0006E653A0020407000676D73007061630068
:1050F000653A20006279740065732E00546F6F006A
:10510000206C6F006E67210053796E007461780027
:1051100020657200726F72004E6F2000454550008E
:10512000524F4D004572610073696E0067646F00F5
:105130006E655300617669006E672000746F200011
:10514000736C6F00742049006E7661006C696400B6
:1051500020736C006F744C006F616400696E6700AF
:10516000206672006F6D2000736C6F007420450024
:1051700052524F00523A2000636F6D006D616E0015
:1051800064206800617320006E6F20006566660011
:10519000656374002068650072654100434B4E00F2
:1051A00041434B00493243002053540041525400C4
:1051B000204249005449320043205300544F5000CC
:1051C000204249005449320043206D006F6465005D
:1051D0003A0D0A0020312E0020536F0066747700CC
:1051E000617265000D0A2000322E200048617200B5
:1051F0006477610072655300657420007370650008
:1052000065643A000D0A2000312E20007E354B00E7
:10521000487A0D000A2032002E207E0035304B00E7
:10522000487A0D000A2033002E207E0031303000F5
:105230004B487A000D0A2000342E20007E343000C6
:10524000304B48007A574100524E49004E473A00D1
:105250002048410052445700415245002049320045
:105260004320690073206200726F6B00656E20003E
:105270006F6E20007468690073205000494321005C
:105280002028520045562000413329005365740000
:1052900020737000656564003A0D0A0020312E000D
:1052A00020313000304B48007A0D0A0020322E00A9
:1052B00020343000304B48007A0D0A0020332E0095
:1052C00020314D00487A490032432000286D6F009C
:1052D00064207300706429003D28200020302E00D7
:1052E0004D616300726F20006D656E00750D0A00E0
:1052F00020312E00376269007420610064647200FE
:10530000657373002073650061726300680D0A00A5
:1053100020322E004932430020736E006966660019
:105320006572530065617200636869006E672000F2
:105330004932430020616400647265007373200089
:105340007370610063652E0020466F00756E640007
:1053500020646500766963006573200061743A001B
:10536000536E690066666500722842004153490029
:10537000432952006561640079612F00412F40008C
:1053800020636F006E7472006F6C730020415500D3
:1053900058207000696E61002F412F00402063008B
:1053A0006F6E7400726F6C007320430053207000A6
:1053B000696E43006F6D6D00616E6400206E6F005A
:1053C000742075007365640020696E0020746800A5
:1053D000697320006D6F6400655075006C6C2D0062
:1053E0007570200072657300697374006F727300CA
:1053F000204F4600465075006C6C2D0075702000E3
:1054000072657300697374006F727300204F4E00F1
:1054100053656C00662D74006573740020696E001E
:10542000204869005A206D006F646500206F6E008F
:105430006C7952004553450054424F004F544C0084
:105440004F4144004552410055582000494E5000FC
:1054500055542F0048492D005A2C20005245410038
:10546000443A2000504F57004552200053555000F9
:10547000504C4900455320004F4E50004F574500B7
:1054800052205300555050004C49450053204F00C6
:1054900046464400415441002053540041544500C5
:1054A0003A204400454C4100592075007357520082
:1054B000495445003A205200454144003A204300F7
:1054C0004C4F43004B2C200031434C004F434B00CA
:1054D0002C2030004441540041204F0055545000CE
:1054E00055542C002031440041544100204F5500B8
:1054F00054505500542C200030202A0070696E0052
:1055000020697300206E6F0077204800695A4300BD
:105510004C4F43004B20540049434B00533A20006A
:10552000524541004420420049543A00205379003A
:105530006E7461007820650072726F0072206100E5
:10554000742063006861720020782E002065780066
:105550006974280077697400686F750074206300AF
:1055600068616E00676529006E6F20006D6F6400D2
:105570006520630068616E00676523003A204E0075
:105580006F2073006F66740077617200652072008F
:105590006573650074206F006E207600342C200047
:1055A000757365002074680065207200657365007E
:1055B00074206200757474006F6E2E004E6F6E0062
:1055C00065786900737465006E74200070726F00F6
:1055D000746F63006F6C2100782E2000657869007D
:1055E000740D0A00496E7600616C690064206300E6
:1055F000686F690063652C00207472007920610077
:10560000676169006E444500564944003A68740079
:1056100074703A002F2F6400616E670065726F002E
:1056200075737000726F74006F7479007065730029
:105630002E636F006D2A2D002D2D2D002D2D2D0098
:105640002D2D2D002A4F7000656E200064726100C0
:10565000696E20006F7574007075740073202800E7
:10566000483D4800692D5A002C204C003D474E0013
:1056700044294E006F726D00616C20006F757400DC
:105680007075740073202800483D33002E33760077
:105690002C204C003D474E0044294D005342200031
:1056A000736574003A204D004F5354002073690015
:1056B00067206200697420006669720073744C0090
:1056C00053422000736574003A204C00454153005A
:1056D00054207300696720006269740020666900C5
:1056E0007273740020426F006F746C006F6164000D
:1056F00065722000762031002E20480045580D00AC
:105700000A2032002E20440045430D000A203300B9
:105710002E204200494E0D000A2034002E20520057
:1057200041574400697370006C61790020666F0016
:10573000726D610074207300657456006F6C7400A4
:1057400061676500206D6F006E6974006F72730091
:105750003A203500563A2000207C2000332E3300BA
:10576000563A2000207C2000565055004C4C5500E5
:10577000503A20005365740020736500726961001F
:105780006C2070006F727400207370006565640097
:105790003A20280062707300290D0A0020312E0083
:1057A00020333000300D0A0020322E00203132002C
:1057B00030300D000A2033002E203200343030000B
:1057C0000D0A2000342E200034383000300D0A003D
:1057D00020352E002039360030300D000A203600EA
:1057E0002E20310039323000300D0A0020372E00D3
:1057F00020333800343030000D0A2000382E2000CD
:105800003537360030300D000A2039002E203100A7
:105810003135320030300D000A3130002E20420088
:105820005247200072617700207661006C75650038
:1058300041646A007573740020796F0075722000EE
:10584000746572006D696E00616C410072652000C4
:10585000796F75002073750072653F002043460024
:1058600047313A002043460047323A00285C2D0079
:105870002F5F5C002D2928005C5F2F002D2953002D
:10588000656C6500637420006F757400707574003A
:105890002074790070653A000D0A2000312E200036
:1058A0004F7065006E206400726169006E202800F0
:1058B000483D4800692D5A002C204C003D474E00C1
:1058C00044290D000A2032002E204E006F726D0018
:1058D000616C200028483D00332E3300562C2000F8
:1058E0004C3D47004E442900523257002028730097
:1058F0007064200068697A00293D2800202030006B
:105900002E4D610063726F00206D65006E750D0095
:105910000A2031002E4953004F37380031362D0010
:105920003320410054520D000A2032002E4953000A
:105930004F37380031362D0033207000617273000C
:1059400065206F006E6C790049534F002037380096
:1059500031362D003320410054522000285245009A
:1059600053455400206F6E0020435300290D0A0058
:10597000524553004554200048494700482C200018
:10598000434C4F00434B2000544943004B2C200014
:1059900052455300455420004C4F570049534F0087
:1059A0002037380031362D003320720065706C00CE
:1059B000792028007573650073206300757272008A
:1059C000656E7400204C53004220730065747400AF
:1059D000696E6700293A200050726F00746F63008F
:1059E0006F6C3A0020736500726961006C332000AF
:1059F000776972006532200077697200655246004F
:105A000055756E006B6E6F00776E520065616400B5
:105A10002074790070653A0020746F0020656E0074
:105A20006476610072696100626C6500206C6500DB
:105A30006E6774006844610074612000756E6900CF
:105A400074733A00206E6F0020696E006469630011
:105A5000617469006F6E44006174610020756E00AE
:105A6000697420006C656E0067746800202862000D
:105A700069747300293A200043532000454E4100C9
:105A8000424C4500444353002044490053414200E6
:105A90004C454400523357002028730070642000A6
:105AA00063736C00206869007A293D002820290072
:105AB0000D0A4400697363006F6E6E0065637400C5
:105AC00020616E007920640065766900636573006B
:105AD0000D0A43006F6E6E00656374002028560047
:105AE00070752000746F20002B355600292061004E
:105AF0006E64200028414400432074006F202B0076
:105B0000332E33005629430074726C0041555800FF
:105B10004D4F440045204C0045445000554C4C002E
:105B200055502000485055004C4C550050204C001A
:105B30005652450047414400432061006E642000F6
:105B400073757000706C79003556560050553300EF
:105B50002E335600414443004275730020686900AB
:105B6000676842007573200048692D005A20300094
:105B700042757300204869002D5A2000314D4F00B6
:105B800044452000616E64002056520045472000C5
:105B90004C45440073207300686F75006C642000EE
:105BA000626520006F6E2100466F75006E642000F4
:105BB00020657200726F7200732E4D004F534900C2
:105BC000434C4B004D4953004F435300204F4B0073
:105BD00020464100494C53006574200073706500F5
:105BE00065643A000D0A2000312E200033304B004E
:105BF000487A0D000A2032002E20310032354B0049
:105C0000487A0D000A2033002E20320035304B0038
:105C1000487A0D000A2034002E2031004D487A00C9
:105C2000436C6F00636B2000706F6C0061726900E1
:105C300074793A000D0A2000312E200049646C006E
:105C400065206C006F7720002A646500666175002E
:105C50006C740D000A2032002E204900646C65002F
:105C60002068690067684F007574700075742000C3
:105C7000636C6F00636B200065646700653A0D001C
:105C80000A2031002E204900646C650020746F00EA
:105C90002061630074697600650D0A0020322E00D1
:105CA0002041630074697600652074006F206900EC
:105CB000646C6500202A640065666100756C740080
:105CC000496E70007574200073616D00706C650022
:105CD00020706800617365003A0D0A0020312E00C3
:105CE000204D690064646C0065202A0064656600CC
:105CF00061756C00740D0A0020322E0020456E0084
:105D000064535000492028007370640020636B00C6
:105D1000702073006B652000736D7000206373004A
:105D20006C206800697A29003D28200020302E0070
:105D30004D616300726F20006D656E00750D0A0085
:105D400020312E00536E6900666620004353200008
